{
	"Challenge-2-Polygon-Transaction-Optimization/polygon_transaction_optimization.sol": {
		"MyToken": {
			"abi": [
				{
					"inputs": [
						{
							"internalType": "string",
							"name": "_name",
							"type": "string"
						},
						{
							"internalType": "string",
							"name": "_symbol",
							"type": "string"
						},
						{
							"internalType": "uint8",
							"name": "_decimals",
							"type": "uint8"
						},
						{
							"internalType": "uint256",
							"name": "initialSupply",
							"type": "uint256"
						}
					],
					"stateMutability": "nonpayable",
					"type": "constructor"
				},
				{
					"inputs": [
						{
							"internalType": "address",
							"name": "_owner",
							"type": "address"
						}
					],
					"name": "balanceOf",
					"outputs": [
						{
							"internalType": "uint256",
							"name": "balance",
							"type": "uint256"
						}
					],
					"stateMutability": "view",
					"type": "function"
				},
				{
					"inputs": [
						{
							"internalType": "address",
							"name": "",
							"type": "address"
						}
					],
					"name": "balances",
					"outputs": [
						{
							"internalType": "uint256",
							"name": "",
							"type": "uint256"
						}
					],
					"stateMutability": "view",
					"type": "function"
				},
				{
					"inputs": [],
					"name": "decimals",
					"outputs": [
						{
							"internalType": "uint8",
							"name": "",
							"type": "uint8"
						}
					],
					"stateMutability": "view",
					"type": "function"
				},
				{
					"inputs": [],
					"name": "name",
					"outputs": [
						{
							"internalType": "string",
							"name": "",
							"type": "string"
						}
					],
					"stateMutability": "view",
					"type": "function"
				},
				{
					"inputs": [],
					"name": "symbol",
					"outputs": [
						{
							"internalType": "string",
							"name": "",
							"type": "string"
						}
					],
					"stateMutability": "view",
					"type": "function"
				},
				{
					"inputs": [
						{
							"internalType": "address",
							"name": "_to",
							"type": "address"
						},
						{
							"internalType": "uint256",
							"name": "_value",
							"type": "uint256"
						}
					],
					"name": "transfer",
					"outputs": [
						{
							"internalType": "bool",
							"name": "success",
							"type": "bool"
						}
					],
					"stateMutability": "nonpayable",
					"type": "function"
				},
				{
					"inputs": [
						{
							"internalType": "address[]",
							"name": "_to",
							"type": "address[]"
						},
						{
							"internalType": "uint256[]",
							"name": "_amounts",
							"type": "uint256[]"
						}
					],
					"name": "transferBatch",
					"outputs": [],
					"stateMutability": "nonpayable",
					"type": "function"
				}
			],
			"devdoc": {
				"kind": "dev",
				"methods": {},
				"version": 1
			},
			"evm": {
				"assembly": "    /* \"Challenge-2-Polygon-Transaction-Optimization/polygon_transaction_optimization.sol\":57:1116  contract MyToken {... */\n  mstore(0x40, 0x80)\n    /* \"Challenge-2-Polygon-Transaction-Optimization/polygon_transaction_optimization.sol\":208:435  constructor(string memory _name, string memory _symbol, uint8 _decimals, uint256 initialSupply) {... */\n  callvalue\n  dup1\n  iszero\n  tag_1\n  jumpi\n  0x00\n  dup1\n  revert\ntag_1:\n  pop\n  mload(0x40)\n  sub(codesize, bytecodeSize)\n  dup1\n  bytecodeSize\n  dup4\n  codecopy\n  dup2\n  dup2\n  add\n  0x40\n  mstore\n  dup2\n  add\n  swap1\n  tag_2\n  swap2\n  swap1\n  tag_3\n  jump\t// in\ntag_2:\n    /* \"Challenge-2-Polygon-Transaction-Optimization/polygon_transaction_optimization.sol\":321:326  _name */\n  dup4\n    /* \"Challenge-2-Polygon-Transaction-Optimization/polygon_transaction_optimization.sol\":314:318  name */\n  0x01\n    /* \"Challenge-2-Polygon-Transaction-Optimization/polygon_transaction_optimization.sol\":314:326  name = _name */\n  swap1\n  dup2\n  tag_6\n  swap2\n  swap1\n  tag_7\n  jump\t// in\ntag_6:\n  pop\n    /* \"Challenge-2-Polygon-Transaction-Optimization/polygon_transaction_optimization.sol\":345:352  _symbol */\n  dup3\n    /* \"Challenge-2-Polygon-Transaction-Optimization/polygon_transaction_optimization.sol\":336:342  symbol */\n  0x02\n    /* \"Challenge-2-Polygon-Transaction-Optimization/polygon_transaction_optimization.sol\":336:352  symbol = _symbol */\n  swap1\n  dup2\n  tag_8\n  swap2\n  swap1\n  tag_7\n  jump\t// in\ntag_8:\n  pop\n    /* \"Challenge-2-Polygon-Transaction-Optimization/polygon_transaction_optimization.sol\":373:382  _decimals */\n  dup2\n    /* \"Challenge-2-Polygon-Transaction-Optimization/polygon_transaction_optimization.sol\":362:370  decimals */\n  0x03\n  0x00\n    /* \"Challenge-2-Polygon-Transaction-Optimization/polygon_transaction_optimization.sol\":362:382  decimals = _decimals */\n  0x0100\n  exp\n  dup2\n  sload\n  dup2\n  0xff\n  mul\n  not\n  and\n  swap1\n  dup4\n  0xff\n  and\n  mul\n  or\n  swap1\n  sstore\n  pop\n    /* \"Challenge-2-Polygon-Transaction-Optimization/polygon_transaction_optimization.sol\":415:428  initialSupply */\n  dup1\n    /* \"Challenge-2-Polygon-Transaction-Optimization/polygon_transaction_optimization.sol\":392:400  balances */\n  0x00\n    /* \"Challenge-2-Polygon-Transaction-Optimization/polygon_transaction_optimization.sol\":392:412  balances[msg.sender] */\n  dup1\n    /* \"Challenge-2-Polygon-Transaction-Optimization/polygon_transaction_optimization.sol\":401:411  msg.sender */\n  caller\n    /* \"Challenge-2-Polygon-Transaction-Optimization/polygon_transaction_optimization.sol\":392:412  balances[msg.sender] */\n  0xffffffffffffffffffffffffffffffffffffffff\n  and\n  0xffffffffffffffffffffffffffffffffffffffff\n  and\n  dup2\n  mstore\n  0x20\n  add\n  swap1\n  dup2\n  mstore\n  0x20\n  add\n  0x00\n  keccak256\n    /* \"Challenge-2-Polygon-Transaction-Optimization/polygon_transaction_optimization.sol\":392:428  balances[msg.sender] = initialSupply */\n  dup2\n  swap1\n  sstore\n  pop\n    /* \"Challenge-2-Polygon-Transaction-Optimization/polygon_transaction_optimization.sol\":208:435  constructor(string memory _name, string memory _symbol, uint8 _decimals, uint256 initialSupply) {... */\n  pop\n  pop\n  pop\n  pop\n    /* \"Challenge-2-Polygon-Transaction-Optimization/polygon_transaction_optimization.sol\":57:1116  contract MyToken {... */\n  jump(tag_9)\n    /* \"#utility.yul\":7:82   */\ntag_10:\n    /* \"#utility.yul\":40:46   */\n  0x00\n    /* \"#utility.yul\":73:75   */\n  0x40\n    /* \"#utility.yul\":67:76   */\n  mload\n    /* \"#utility.yul\":57:76   */\n  swap1\n  pop\n    /* \"#utility.yul\":7:82   */\n  swap1\n  jump\t// out\n    /* \"#utility.yul\":88:205   */\ntag_11:\n    /* \"#utility.yul\":197:198   */\n  0x00\n    /* \"#utility.yul\":194:195   */\n  dup1\n    /* \"#utility.yul\":187:199   */\n  revert\n    /* \"#utility.yul\":211:328   */\ntag_12:\n    /* \"#utility.yul\":320:321   */\n  0x00\n    /* \"#utility.yul\":317:318   */\n  dup1\n    /* \"#utility.yul\":310:322   */\n  revert\n    /* \"#utility.yul\":334:451   */\ntag_13:\n    /* \"#utility.yul\":443:444   */\n  0x00\n    /* \"#utility.yul\":440:441   */\n  dup1\n    /* \"#utility.yul\":433:445   */\n  revert\n    /* \"#utility.yul\":457:574   */\ntag_14:\n    /* \"#utility.yul\":566:567   */\n  0x00\n    /* \"#utility.yul\":563:564   */\n  dup1\n    /* \"#utility.yul\":556:568   */\n  revert\n    /* \"#utility.yul\":580:682   */\ntag_15:\n    /* \"#utility.yul\":621:627   */\n  0x00\n    /* \"#utility.yul\":672:674   */\n  0x1f\n    /* \"#utility.yul\":668:675   */\n  not\n    /* \"#utility.yul\":663:665   */\n  0x1f\n    /* \"#utility.yul\":656:661   */\n  dup4\n    /* \"#utility.yul\":652:666   */\n  add\n    /* \"#utility.yul\":648:676   */\n  and\n    /* \"#utility.yul\":638:676   */\n  swap1\n  pop\n    /* \"#utility.yul\":580:682   */\n  swap2\n  swap1\n  pop\n  jump\t// out\n    /* \"#utility.yul\":688:868   */\ntag_16:\n    /* \"#utility.yul\":736:813   */\n  0x4e487b7100000000000000000000000000000000000000000000000000000000\n    /* \"#utility.yul\":733:734   */\n  0x00\n    /* \"#utility.yul\":726:814   */\n  mstore\n    /* \"#utility.yul\":833:837   */\n  0x41\n    /* \"#utility.yul\":830:831   */\n  0x04\n    /* \"#utility.yul\":823:838   */\n  mstore\n    /* \"#utility.yul\":857:861   */\n  0x24\n    /* \"#utility.yul\":854:855   */\n  0x00\n    /* \"#utility.yul\":847:862   */\n  revert\n    /* \"#utility.yul\":874:1155   */\ntag_17:\n    /* \"#utility.yul\":957:984   */\n  tag_56\n    /* \"#utility.yul\":979:983   */\n  dup3\n    /* \"#utility.yul\":957:984   */\n  tag_15\n  jump\t// in\ntag_56:\n    /* \"#utility.yul\":949:955   */\n  dup2\n    /* \"#utility.yul\":945:985   */\n  add\n    /* \"#utility.yul\":1087:1093   */\n  dup2\n    /* \"#utility.yul\":1075:1085   */\n  dup2\n    /* \"#utility.yul\":1072:1094   */\n  lt\n    /* \"#utility.yul\":1051:1069   */\n  0xffffffffffffffff\n    /* \"#utility.yul\":1039:1049   */\n  dup3\n    /* \"#utility.yul\":1036:1070   */\n  gt\n    /* \"#utility.yul\":1033:1095   */\n  or\n    /* \"#utility.yul\":1030:1118   */\n  iszero\n  tag_57\n  jumpi\n    /* \"#utility.yul\":1098:1116   */\n  tag_58\n  tag_16\n  jump\t// in\ntag_58:\n    /* \"#utility.yul\":1030:1118   */\ntag_57:\n    /* \"#utility.yul\":1138:1148   */\n  dup1\n    /* \"#utility.yul\":1134:1136   */\n  0x40\n    /* \"#utility.yul\":1127:1149   */\n  mstore\n    /* \"#utility.yul\":917:1155   */\n  pop\n    /* \"#utility.yul\":874:1155   */\n  pop\n  pop\n  jump\t// out\n    /* \"#utility.yul\":1161:1290   */\ntag_18:\n    /* \"#utility.yul\":1195:1201   */\n  0x00\n    /* \"#utility.yul\":1222:1242   */\n  tag_60\n  tag_10\n  jump\t// in\ntag_60:\n    /* \"#utility.yul\":1212:1242   */\n  swap1\n  pop\n    /* \"#utility.yul\":1251:1284   */\n  tag_61\n    /* \"#utility.yul\":1279:1283   */\n  dup3\n    /* \"#utility.yul\":1271:1277   */\n  dup3\n    /* \"#utility.yul\":1251:1284   */\n  tag_17\n  jump\t// in\ntag_61:\n    /* \"#utility.yul\":1161:1290   */\n  swap2\n  swap1\n  pop\n  jump\t// out\n    /* \"#utility.yul\":1296:1604   */\ntag_19:\n    /* \"#utility.yul\":1358:1362   */\n  0x00\n    /* \"#utility.yul\":1448:1466   */\n  0xffffffffffffffff\n    /* \"#utility.yul\":1440:1446   */\n  dup3\n    /* \"#utility.yul\":1437:1467   */\n  gt\n    /* \"#utility.yul\":1434:1490   */\n  iszero\n  tag_63\n  jumpi\n    /* \"#utility.yul\":1470:1488   */\n  tag_64\n  tag_16\n  jump\t// in\ntag_64:\n    /* \"#utility.yul\":1434:1490   */\ntag_63:\n    /* \"#utility.yul\":1508:1537   */\n  tag_65\n    /* \"#utility.yul\":1530:1536   */\n  dup3\n    /* \"#utility.yul\":1508:1537   */\n  tag_15\n  jump\t// in\ntag_65:\n    /* \"#utility.yul\":1500:1537   */\n  swap1\n  pop\n    /* \"#utility.yul\":1592:1596   */\n  0x20\n    /* \"#utility.yul\":1586:1590   */\n  dup2\n    /* \"#utility.yul\":1582:1597   */\n  add\n    /* \"#utility.yul\":1574:1597   */\n  swap1\n  pop\n    /* \"#utility.yul\":1296:1604   */\n  swap2\n  swap1\n  pop\n  jump\t// out\n    /* \"#utility.yul\":1610:1856   */\ntag_20:\n    /* \"#utility.yul\":1691:1692   */\n  0x00\n    /* \"#utility.yul\":1701:1814   */\ntag_67:\n    /* \"#utility.yul\":1715:1721   */\n  dup4\n    /* \"#utility.yul\":1712:1713   */\n  dup2\n    /* \"#utility.yul\":1709:1722   */\n  lt\n    /* \"#utility.yul\":1701:1814   */\n  iszero\n  tag_69\n  jumpi\n    /* \"#utility.yul\":1800:1801   */\n  dup1\n    /* \"#utility.yul\":1795:1798   */\n  dup3\n    /* \"#utility.yul\":1791:1802   */\n  add\n    /* \"#utility.yul\":1785:1803   */\n  mload\n    /* \"#utility.yul\":1781:1782   */\n  dup2\n    /* \"#utility.yul\":1776:1779   */\n  dup5\n    /* \"#utility.yul\":1772:1783   */\n  add\n    /* \"#utility.yul\":1765:1804   */\n  mstore\n    /* \"#utility.yul\":1737:1739   */\n  0x20\n    /* \"#utility.yul\":1734:1735   */\n  dup2\n    /* \"#utility.yul\":1730:1740   */\n  add\n    /* \"#utility.yul\":1725:1740   */\n  swap1\n  pop\n    /* \"#utility.yul\":1701:1814   */\n  jump(tag_67)\ntag_69:\n    /* \"#utility.yul\":1848:1849   */\n  0x00\n    /* \"#utility.yul\":1839:1845   */\n  dup5\n    /* \"#utility.yul\":1834:1837   */\n  dup5\n    /* \"#utility.yul\":1830:1846   */\n  add\n    /* \"#utility.yul\":1823:1850   */\n  mstore\n    /* \"#utility.yul\":1672:1856   */\n  pop\n    /* \"#utility.yul\":1610:1856   */\n  pop\n  pop\n  pop\n  jump\t// out\n    /* \"#utility.yul\":1862:2296   */\ntag_21:\n    /* \"#utility.yul\":1951:1956   */\n  0x00\n    /* \"#utility.yul\":1976:2042   */\n  tag_71\n    /* \"#utility.yul\":1992:2041   */\n  tag_72\n    /* \"#utility.yul\":2034:2040   */\n  dup5\n    /* \"#utility.yul\":1992:2041   */\n  tag_19\n  jump\t// in\ntag_72:\n    /* \"#utility.yul\":1976:2042   */\n  tag_18\n  jump\t// in\ntag_71:\n    /* \"#utility.yul\":1967:2042   */\n  swap1\n  pop\n    /* \"#utility.yul\":2065:2071   */\n  dup3\n    /* \"#utility.yul\":2058:2063   */\n  dup2\n    /* \"#utility.yul\":2051:2072   */\n  mstore\n    /* \"#utility.yul\":2103:2107   */\n  0x20\n    /* \"#utility.yul\":2096:2101   */\n  dup2\n    /* \"#utility.yul\":2092:2108   */\n  add\n    /* \"#utility.yul\":2141:2144   */\n  dup5\n    /* \"#utility.yul\":2132:2138   */\n  dup5\n    /* \"#utility.yul\":2127:2130   */\n  dup5\n    /* \"#utility.yul\":2123:2139   */\n  add\n    /* \"#utility.yul\":2120:2145   */\n  gt\n    /* \"#utility.yul\":2117:2229   */\n  iszero\n  tag_73\n  jumpi\n    /* \"#utility.yul\":2148:2227   */\n  tag_74\n  tag_14\n  jump\t// in\ntag_74:\n    /* \"#utility.yul\":2117:2229   */\ntag_73:\n    /* \"#utility.yul\":2238:2290   */\n  tag_75\n    /* \"#utility.yul\":2283:2289   */\n  dup5\n    /* \"#utility.yul\":2278:2281   */\n  dup3\n    /* \"#utility.yul\":2273:2276   */\n  dup6\n    /* \"#utility.yul\":2238:2290   */\n  tag_20\n  jump\t// in\ntag_75:\n    /* \"#utility.yul\":1957:2296   */\n  pop\n    /* \"#utility.yul\":1862:2296   */\n  swap4\n  swap3\n  pop\n  pop\n  pop\n  jump\t// out\n    /* \"#utility.yul\":2316:2671   */\ntag_22:\n    /* \"#utility.yul\":2383:2388   */\n  0x00\n    /* \"#utility.yul\":2432:2435   */\n  dup3\n    /* \"#utility.yul\":2425:2429   */\n  0x1f\n    /* \"#utility.yul\":2417:2423   */\n  dup4\n    /* \"#utility.yul\":2413:2430   */\n  add\n    /* \"#utility.yul\":2409:2436   */\n  slt\n    /* \"#utility.yul\":2399:2521   */\n  tag_77\n  jumpi\n    /* \"#utility.yul\":2440:2519   */\n  tag_78\n  tag_13\n  jump\t// in\ntag_78:\n    /* \"#utility.yul\":2399:2521   */\ntag_77:\n    /* \"#utility.yul\":2550:2556   */\n  dup2\n    /* \"#utility.yul\":2544:2557   */\n  mload\n    /* \"#utility.yul\":2575:2665   */\n  tag_79\n    /* \"#utility.yul\":2661:2664   */\n  dup5\n    /* \"#utility.yul\":2653:2659   */\n  dup3\n    /* \"#utility.yul\":2646:2650   */\n  0x20\n    /* \"#utility.yul\":2638:2644   */\n  dup7\n    /* \"#utility.yul\":2634:2651   */\n  add\n    /* \"#utility.yul\":2575:2665   */\n  tag_21\n  jump\t// in\ntag_79:\n    /* \"#utility.yul\":2566:2665   */\n  swap2\n  pop\n    /* \"#utility.yul\":2389:2671   */\n  pop\n    /* \"#utility.yul\":2316:2671   */\n  swap3\n  swap2\n  pop\n  pop\n  jump\t// out\n    /* \"#utility.yul\":2677:2763   */\ntag_23:\n    /* \"#utility.yul\":2712:2719   */\n  0x00\n    /* \"#utility.yul\":2752:2756   */\n  0xff\n    /* \"#utility.yul\":2745:2750   */\n  dup3\n    /* \"#utility.yul\":2741:2757   */\n  and\n    /* \"#utility.yul\":2730:2757   */\n  swap1\n  pop\n    /* \"#utility.yul\":2677:2763   */\n  swap2\n  swap1\n  pop\n  jump\t// out\n    /* \"#utility.yul\":2769:2887   */\ntag_24:\n    /* \"#utility.yul\":2840:2862   */\n  tag_82\n    /* \"#utility.yul\":2856:2861   */\n  dup2\n    /* \"#utility.yul\":2840:2862   */\n  tag_23\n  jump\t// in\ntag_82:\n    /* \"#utility.yul\":2833:2838   */\n  dup2\n    /* \"#utility.yul\":2830:2863   */\n  eq\n    /* \"#utility.yul\":2820:2881   */\n  tag_83\n  jumpi\n    /* \"#utility.yul\":2877:2878   */\n  0x00\n    /* \"#utility.yul\":2874:2875   */\n  dup1\n    /* \"#utility.yul\":2867:2879   */\n  revert\n    /* \"#utility.yul\":2820:2881   */\ntag_83:\n    /* \"#utility.yul\":2769:2887   */\n  pop\n  jump\t// out\n    /* \"#utility.yul\":2893:3032   */\ntag_25:\n    /* \"#utility.yul\":2948:2953   */\n  0x00\n    /* \"#utility.yul\":2979:2985   */\n  dup2\n    /* \"#utility.yul\":2973:2986   */\n  mload\n    /* \"#utility.yul\":2964:2986   */\n  swap1\n  pop\n    /* \"#utility.yul\":2995:3026   */\n  tag_85\n    /* \"#utility.yul\":3020:3025   */\n  dup2\n    /* \"#utility.yul\":2995:3026   */\n  tag_24\n  jump\t// in\ntag_85:\n    /* \"#utility.yul\":2893:3032   */\n  swap3\n  swap2\n  pop\n  pop\n  jump\t// out\n    /* \"#utility.yul\":3038:3115   */\ntag_26:\n    /* \"#utility.yul\":3075:3082   */\n  0x00\n    /* \"#utility.yul\":3104:3109   */\n  dup2\n    /* \"#utility.yul\":3093:3109   */\n  swap1\n  pop\n    /* \"#utility.yul\":3038:3115   */\n  swap2\n  swap1\n  pop\n  jump\t// out\n    /* \"#utility.yul\":3121:3243   */\ntag_27:\n    /* \"#utility.yul\":3194:3218   */\n  tag_88\n    /* \"#utility.yul\":3212:3217   */\n  dup2\n    /* \"#utility.yul\":3194:3218   */\n  tag_26\n  jump\t// in\ntag_88:\n    /* \"#utility.yul\":3187:3192   */\n  dup2\n    /* \"#utility.yul\":3184:3219   */\n  eq\n    /* \"#utility.yul\":3174:3237   */\n  tag_89\n  jumpi\n    /* \"#utility.yul\":3233:3234   */\n  0x00\n    /* \"#utility.yul\":3230:3231   */\n  dup1\n    /* \"#utility.yul\":3223:3235   */\n  revert\n    /* \"#utility.yul\":3174:3237   */\ntag_89:\n    /* \"#utility.yul\":3121:3243   */\n  pop\n  jump\t// out\n    /* \"#utility.yul\":3249:3392   */\ntag_28:\n    /* \"#utility.yul\":3306:3311   */\n  0x00\n    /* \"#utility.yul\":3337:3343   */\n  dup2\n    /* \"#utility.yul\":3331:3344   */\n  mload\n    /* \"#utility.yul\":3322:3344   */\n  swap1\n  pop\n    /* \"#utility.yul\":3353:3386   */\n  tag_91\n    /* \"#utility.yul\":3380:3385   */\n  dup2\n    /* \"#utility.yul\":3353:3386   */\n  tag_27\n  jump\t// in\ntag_91:\n    /* \"#utility.yul\":3249:3392   */\n  swap3\n  swap2\n  pop\n  pop\n  jump\t// out\n    /* \"#utility.yul\":3398:4560   */\ntag_3:\n    /* \"#utility.yul\":3513:3519   */\n  0x00\n    /* \"#utility.yul\":3521:3527   */\n  dup1\n    /* \"#utility.yul\":3529:3535   */\n  0x00\n    /* \"#utility.yul\":3537:3543   */\n  dup1\n    /* \"#utility.yul\":3586:3589   */\n  0x80\n    /* \"#utility.yul\":3574:3583   */\n  dup6\n    /* \"#utility.yul\":3565:3572   */\n  dup8\n    /* \"#utility.yul\":3561:3584   */\n  sub\n    /* \"#utility.yul\":3557:3590   */\n  slt\n    /* \"#utility.yul\":3554:3674   */\n  iszero\n  tag_93\n  jumpi\n    /* \"#utility.yul\":3593:3672   */\n  tag_94\n  tag_11\n  jump\t// in\ntag_94:\n    /* \"#utility.yul\":3554:3674   */\ntag_93:\n    /* \"#utility.yul\":3734:3735   */\n  0x00\n    /* \"#utility.yul\":3723:3732   */\n  dup6\n    /* \"#utility.yul\":3719:3736   */\n  add\n    /* \"#utility.yul\":3713:3737   */\n  mload\n    /* \"#utility.yul\":3764:3782   */\n  0xffffffffffffffff\n    /* \"#utility.yul\":3756:3762   */\n  dup2\n    /* \"#utility.yul\":3753:3783   */\n  gt\n    /* \"#utility.yul\":3750:3867   */\n  iszero\n  tag_95\n  jumpi\n    /* \"#utility.yul\":3786:3865   */\n  tag_96\n  tag_12\n  jump\t// in\ntag_96:\n    /* \"#utility.yul\":3750:3867   */\ntag_95:\n    /* \"#utility.yul\":3891:3965   */\n  tag_97\n    /* \"#utility.yul\":3957:3964   */\n  dup8\n    /* \"#utility.yul\":3948:3954   */\n  dup3\n    /* \"#utility.yul\":3937:3946   */\n  dup9\n    /* \"#utility.yul\":3933:3955   */\n  add\n    /* \"#utility.yul\":3891:3965   */\n  tag_22\n  jump\t// in\ntag_97:\n    /* \"#utility.yul\":3881:3965   */\n  swap5\n  pop\n    /* \"#utility.yul\":3684:3975   */\n  pop\n    /* \"#utility.yul\":4035:4037   */\n  0x20\n    /* \"#utility.yul\":4024:4033   */\n  dup6\n    /* \"#utility.yul\":4020:4038   */\n  add\n    /* \"#utility.yul\":4014:4039   */\n  mload\n    /* \"#utility.yul\":4066:4084   */\n  0xffffffffffffffff\n    /* \"#utility.yul\":4058:4064   */\n  dup2\n    /* \"#utility.yul\":4055:4085   */\n  gt\n    /* \"#utility.yul\":4052:4169   */\n  iszero\n  tag_98\n  jumpi\n    /* \"#utility.yul\":4088:4167   */\n  tag_99\n  tag_12\n  jump\t// in\ntag_99:\n    /* \"#utility.yul\":4052:4169   */\ntag_98:\n    /* \"#utility.yul\":4193:4267   */\n  tag_100\n    /* \"#utility.yul\":4259:4266   */\n  dup8\n    /* \"#utility.yul\":4250:4256   */\n  dup3\n    /* \"#utility.yul\":4239:4248   */\n  dup9\n    /* \"#utility.yul\":4235:4257   */\n  add\n    /* \"#utility.yul\":4193:4267   */\n  tag_22\n  jump\t// in\ntag_100:\n    /* \"#utility.yul\":4183:4267   */\n  swap4\n  pop\n    /* \"#utility.yul\":3985:4277   */\n  pop\n    /* \"#utility.yul\":4316:4318   */\n  0x40\n    /* \"#utility.yul\":4342:4404   */\n  tag_101\n    /* \"#utility.yul\":4396:4403   */\n  dup8\n    /* \"#utility.yul\":4387:4393   */\n  dup3\n    /* \"#utility.yul\":4376:4385   */\n  dup9\n    /* \"#utility.yul\":4372:4394   */\n  add\n    /* \"#utility.yul\":4342:4404   */\n  tag_25\n  jump\t// in\ntag_101:\n    /* \"#utility.yul\":4332:4404   */\n  swap3\n  pop\n    /* \"#utility.yul\":4287:4414   */\n  pop\n    /* \"#utility.yul\":4453:4455   */\n  0x60\n    /* \"#utility.yul\":4479:4543   */\n  tag_102\n    /* \"#utility.yul\":4535:4542   */\n  dup8\n    /* \"#utility.yul\":4526:4532   */\n  dup3\n    /* \"#utility.yul\":4515:4524   */\n  dup9\n    /* \"#utility.yul\":4511:4533   */\n  add\n    /* \"#utility.yul\":4479:4543   */\n  tag_28\n  jump\t// in\ntag_102:\n    /* \"#utility.yul\":4469:4543   */\n  swap2\n  pop\n    /* \"#utility.yul\":4424:4553   */\n  pop\n    /* \"#utility.yul\":3398:4560   */\n  swap3\n  swap6\n  swap2\n  swap5\n  pop\n  swap3\n  pop\n  jump\t// out\n    /* \"#utility.yul\":4566:4665   */\ntag_29:\n    /* \"#utility.yul\":4618:4624   */\n  0x00\n    /* \"#utility.yul\":4652:4657   */\n  dup2\n    /* \"#utility.yul\":4646:4658   */\n  mload\n    /* \"#utility.yul\":4636:4658   */\n  swap1\n  pop\n    /* \"#utility.yul\":4566:4665   */\n  swap2\n  swap1\n  pop\n  jump\t// out\n    /* \"#utility.yul\":4671:4851   */\ntag_30:\n    /* \"#utility.yul\":4719:4796   */\n  0x4e487b7100000000000000000000000000000000000000000000000000000000\n    /* \"#utility.yul\":4716:4717   */\n  0x00\n    /* \"#utility.yul\":4709:4797   */\n  mstore\n    /* \"#utility.yul\":4816:4820   */\n  0x22\n    /* \"#utility.yul\":4813:4814   */\n  0x04\n    /* \"#utility.yul\":4806:4821   */\n  mstore\n    /* \"#utility.yul\":4840:4844   */\n  0x24\n    /* \"#utility.yul\":4837:4838   */\n  0x00\n    /* \"#utility.yul\":4830:4845   */\n  revert\n    /* \"#utility.yul\":4857:5177   */\ntag_31:\n    /* \"#utility.yul\":4901:4907   */\n  0x00\n    /* \"#utility.yul\":4938:4939   */\n  0x02\n    /* \"#utility.yul\":4932:4936   */\n  dup3\n    /* \"#utility.yul\":4928:4940   */\n  div\n    /* \"#utility.yul\":4918:4940   */\n  swap1\n  pop\n    /* \"#utility.yul\":4985:4986   */\n  0x01\n    /* \"#utility.yul\":4979:4983   */\n  dup3\n    /* \"#utility.yul\":4975:4987   */\n  and\n    /* \"#utility.yul\":5006:5024   */\n  dup1\n    /* \"#utility.yul\":4996:5077   */\n  tag_106\n  jumpi\n    /* \"#utility.yul\":5062:5066   */\n  0x7f\n    /* \"#utility.yul\":5054:5060   */\n  dup3\n    /* \"#utility.yul\":5050:5067   */\n  and\n    /* \"#utility.yul\":5040:5067   */\n  swap2\n  pop\n    /* \"#utility.yul\":4996:5077   */\ntag_106:\n    /* \"#utility.yul\":5124:5126   */\n  0x20\n    /* \"#utility.yul\":5116:5122   */\n  dup3\n    /* \"#utility.yul\":5113:5127   */\n  lt\n    /* \"#utility.yul\":5093:5111   */\n  dup2\n    /* \"#utility.yul\":5090:5128   */\n  sub\n    /* \"#utility.yul\":5087:5171   */\n  tag_107\n  jumpi\n    /* \"#utility.yul\":5143:5161   */\n  tag_108\n  tag_30\n  jump\t// in\ntag_108:\n    /* \"#utility.yul\":5087:5171   */\ntag_107:\n    /* \"#utility.yul\":4908:5177   */\n  pop\n    /* \"#utility.yul\":4857:5177   */\n  swap2\n  swap1\n  pop\n  jump\t// out\n    /* \"#utility.yul\":5183:5324   */\ntag_32:\n    /* \"#utility.yul\":5232:5236   */\n  0x00\n    /* \"#utility.yul\":5255:5258   */\n  dup2\n    /* \"#utility.yul\":5247:5258   */\n  swap1\n  pop\n    /* \"#utility.yul\":5278:5281   */\n  dup2\n    /* \"#utility.yul\":5275:5276   */\n  0x00\n    /* \"#utility.yul\":5268:5282   */\n  mstore\n    /* \"#utility.yul\":5312:5316   */\n  0x20\n    /* \"#utility.yul\":5309:5310   */\n  0x00\n    /* \"#utility.yul\":5299:5317   */\n  keccak256\n    /* \"#utility.yul\":5291:5317   */\n  swap1\n  pop\n    /* \"#utility.yul\":5183:5324   */\n  swap2\n  swap1\n  pop\n  jump\t// out\n    /* \"#utility.yul\":5330:5423   */\ntag_33:\n    /* \"#utility.yul\":5367:5373   */\n  0x00\n    /* \"#utility.yul\":5414:5416   */\n  0x20\n    /* \"#utility.yul\":5409:5411   */\n  0x1f\n    /* \"#utility.yul\":5402:5407   */\n  dup4\n    /* \"#utility.yul\":5398:5412   */\n  add\n    /* \"#utility.yul\":5394:5417   */\n  div\n    /* \"#utility.yul\":5384:5417   */\n  swap1\n  pop\n    /* \"#utility.yul\":5330:5423   */\n  swap2\n  swap1\n  pop\n  jump\t// out\n    /* \"#utility.yul\":5429:5536   */\ntag_34:\n    /* \"#utility.yul\":5473:5481   */\n  0x00\n    /* \"#utility.yul\":5523:5528   */\n  dup3\n    /* \"#utility.yul\":5517:5521   */\n  dup3\n    /* \"#utility.yul\":5513:5529   */\n  shl\n    /* \"#utility.yul\":5492:5529   */\n  swap1\n  pop\n    /* \"#utility.yul\":5429:5536   */\n  swap3\n  swap2\n  pop\n  pop\n  jump\t// out\n    /* \"#utility.yul\":5542:5935   */\ntag_35:\n    /* \"#utility.yul\":5611:5617   */\n  0x00\n    /* \"#utility.yul\":5661:5662   */\n  0x08\n    /* \"#utility.yul\":5649:5659   */\n  dup4\n    /* \"#utility.yul\":5645:5663   */\n  mul\n    /* \"#utility.yul\":5684:5781   */\n  tag_113\n    /* \"#utility.yul\":5714:5780   */\n  0xffffffffffffffffffffffffffffffffffffffffffffffffffffffffffffffff\n    /* \"#utility.yul\":5703:5712   */\n  dup3\n    /* \"#utility.yul\":5684:5781   */\n  tag_34\n  jump\t// in\ntag_113:\n    /* \"#utility.yul\":5802:5841   */\n  tag_114\n    /* \"#utility.yul\":5832:5840   */\n  dup7\n    /* \"#utility.yul\":5821:5830   */\n  dup4\n    /* \"#utility.yul\":5802:5841   */\n  tag_34\n  jump\t// in\ntag_114:\n    /* \"#utility.yul\":5790:5841   */\n  swap6\n  pop\n    /* \"#utility.yul\":5874:5878   */\n  dup1\n    /* \"#utility.yul\":5870:5879   */\n  not\n    /* \"#utility.yul\":5863:5868   */\n  dup5\n    /* \"#utility.yul\":5859:5880   */\n  and\n    /* \"#utility.yul\":5850:5880   */\n  swap4\n  pop\n    /* \"#utility.yul\":5923:5927   */\n  dup1\n    /* \"#utility.yul\":5913:5921   */\n  dup7\n    /* \"#utility.yul\":5909:5928   */\n  and\n    /* \"#utility.yul\":5902:5907   */\n  dup5\n    /* \"#utility.yul\":5899:5929   */\n  or\n    /* \"#utility.yul\":5889:5929   */\n  swap3\n  pop\n    /* \"#utility.yul\":5618:5935   */\n  pop\n  pop\n    /* \"#utility.yul\":5542:5935   */\n  swap4\n  swap3\n  pop\n  pop\n  pop\n  jump\t// out\n    /* \"#utility.yul\":5941:6001   */\ntag_36:\n    /* \"#utility.yul\":5969:5972   */\n  0x00\n    /* \"#utility.yul\":5990:5995   */\n  dup2\n    /* \"#utility.yul\":5983:5995   */\n  swap1\n  pop\n    /* \"#utility.yul\":5941:6001   */\n  swap2\n  swap1\n  pop\n  jump\t// out\n    /* \"#utility.yul\":6007:6149   */\ntag_37:\n    /* \"#utility.yul\":6057:6066   */\n  0x00\n    /* \"#utility.yul\":6090:6143   */\n  tag_117\n    /* \"#utility.yul\":6108:6142   */\n  tag_118\n    /* \"#utility.yul\":6117:6141   */\n  tag_119\n    /* \"#utility.yul\":6135:6140   */\n  dup5\n    /* \"#utility.yul\":6117:6141   */\n  tag_26\n  jump\t// in\ntag_119:\n    /* \"#utility.yul\":6108:6142   */\n  tag_36\n  jump\t// in\ntag_118:\n    /* \"#utility.yul\":6090:6143   */\n  tag_26\n  jump\t// in\ntag_117:\n    /* \"#utility.yul\":6077:6143   */\n  swap1\n  pop\n    /* \"#utility.yul\":6007:6149   */\n  swap2\n  swap1\n  pop\n  jump\t// out\n    /* \"#utility.yul\":6155:6230   */\ntag_38:\n    /* \"#utility.yul\":6198:6201   */\n  0x00\n    /* \"#utility.yul\":6219:6224   */\n  dup2\n    /* \"#utility.yul\":6212:6224   */\n  swap1\n  pop\n    /* \"#utility.yul\":6155:6230   */\n  swap2\n  swap1\n  pop\n  jump\t// out\n    /* \"#utility.yul\":6236:6505   */\ntag_39:\n    /* \"#utility.yul\":6346:6385   */\n  tag_122\n    /* \"#utility.yul\":6377:6384   */\n  dup4\n    /* \"#utility.yul\":6346:6385   */\n  tag_37\n  jump\t// in\ntag_122:\n    /* \"#utility.yul\":6407:6498   */\n  tag_123\n    /* \"#utility.yul\":6456:6497   */\n  tag_124\n    /* \"#utility.yul\":6480:6496   */\n  dup3\n    /* \"#utility.yul\":6456:6497   */\n  tag_38\n  jump\t// in\ntag_124:\n    /* \"#utility.yul\":6448:6454   */\n  dup5\n    /* \"#utility.yul\":6441:6445   */\n  dup5\n    /* \"#utility.yul\":6435:6446   */\n  sload\n    /* \"#utility.yul\":6407:6498   */\n  tag_35\n  jump\t// in\ntag_123:\n    /* \"#utility.yul\":6401:6405   */\n  dup3\n    /* \"#utility.yul\":6394:6499   */\n  sstore\n    /* \"#utility.yul\":6312:6505   */\n  pop\n    /* \"#utility.yul\":6236:6505   */\n  pop\n  pop\n  pop\n  jump\t// out\n    /* \"#utility.yul\":6511:6584   */\ntag_40:\n    /* \"#utility.yul\":6556:6559   */\n  0x00\n    /* \"#utility.yul\":6511:6584   */\n  swap1\n  jump\t// out\n    /* \"#utility.yul\":6590:6779   */\ntag_41:\n    /* \"#utility.yul\":6667:6699   */\n  tag_127\n  tag_40\n  jump\t// in\ntag_127:\n    /* \"#utility.yul\":6708:6773   */\n  tag_128\n    /* \"#utility.yul\":6766:6772   */\n  dup2\n    /* \"#utility.yul\":6758:6764   */\n  dup5\n    /* \"#utility.yul\":6752:6756   */\n  dup5\n    /* \"#utility.yul\":6708:6773   */\n  tag_39\n  jump\t// in\ntag_128:\n    /* \"#utility.yul\":6643:6779   */\n  pop\n    /* \"#utility.yul\":6590:6779   */\n  pop\n  pop\n  jump\t// out\n    /* \"#utility.yul\":6785:6971   */\ntag_42:\n    /* \"#utility.yul\":6845:6965   */\ntag_130:\n    /* \"#utility.yul\":6862:6865   */\n  dup2\n    /* \"#utility.yul\":6855:6860   */\n  dup2\n    /* \"#utility.yul\":6852:6866   */\n  lt\n    /* \"#utility.yul\":6845:6965   */\n  iszero\n  tag_132\n  jumpi\n    /* \"#utility.yul\":6916:6955   */\n  tag_133\n    /* \"#utility.yul\":6953:6954   */\n  0x00\n    /* \"#utility.yul\":6946:6951   */\n  dup3\n    /* \"#utility.yul\":6916:6955   */\n  tag_41\n  jump\t// in\ntag_133:\n    /* \"#utility.yul\":6889:6890   */\n  0x01\n    /* \"#utility.yul\":6882:6887   */\n  dup2\n    /* \"#utility.yul\":6878:6891   */\n  add\n    /* \"#utility.yul\":6869:6891   */\n  swap1\n  pop\n    /* \"#utility.yul\":6845:6965   */\n  jump(tag_130)\ntag_132:\n    /* \"#utility.yul\":6785:6971   */\n  pop\n  pop\n  jump\t// out\n    /* \"#utility.yul\":6977:7520   */\ntag_43:\n    /* \"#utility.yul\":7078:7080   */\n  0x1f\n    /* \"#utility.yul\":7073:7076   */\n  dup3\n    /* \"#utility.yul\":7070:7081   */\n  gt\n    /* \"#utility.yul\":7067:7513   */\n  iszero\n  tag_135\n  jumpi\n    /* \"#utility.yul\":7112:7150   */\n  tag_136\n    /* \"#utility.yul\":7144:7149   */\n  dup2\n    /* \"#utility.yul\":7112:7150   */\n  tag_32\n  jump\t// in\ntag_136:\n    /* \"#utility.yul\":7196:7225   */\n  tag_137\n    /* \"#utility.yul\":7214:7224   */\n  dup5\n    /* \"#utility.yul\":7196:7225   */\n  tag_33\n  jump\t// in\ntag_137:\n    /* \"#utility.yul\":7186:7194   */\n  dup2\n    /* \"#utility.yul\":7182:7226   */\n  add\n    /* \"#utility.yul\":7379:7381   */\n  0x20\n    /* \"#utility.yul\":7367:7377   */\n  dup6\n    /* \"#utility.yul\":7364:7382   */\n  lt\n    /* \"#utility.yul\":7361:7410   */\n  iszero\n  tag_138\n  jumpi\n    /* \"#utility.yul\":7400:7408   */\n  dup2\n    /* \"#utility.yul\":7385:7408   */\n  swap1\n  pop\n    /* \"#utility.yul\":7361:7410   */\ntag_138:\n    /* \"#utility.yul\":7423:7503   */\n  tag_139\n    /* \"#utility.yul\":7479:7501   */\n  tag_140\n    /* \"#utility.yul\":7497:7500   */\n  dup6\n    /* \"#utility.yul\":7479:7501   */\n  tag_33\n  jump\t// in\ntag_140:\n    /* \"#utility.yul\":7469:7477   */\n  dup4\n    /* \"#utility.yul\":7465:7502   */\n  add\n    /* \"#utility.yul\":7452:7463   */\n  dup3\n    /* \"#utility.yul\":7423:7503   */\n  tag_42\n  jump\t// in\ntag_139:\n    /* \"#utility.yul\":7082:7513   */\n  pop\n  pop\n    /* \"#utility.yul\":7067:7513   */\ntag_135:\n    /* \"#utility.yul\":6977:7520   */\n  pop\n  pop\n  pop\n  jump\t// out\n    /* \"#utility.yul\":7526:7643   */\ntag_44:\n    /* \"#utility.yul\":7580:7588   */\n  0x00\n    /* \"#utility.yul\":7630:7635   */\n  dup3\n    /* \"#utility.yul\":7624:7628   */\n  dup3\n    /* \"#utility.yul\":7620:7636   */\n  shr\n    /* \"#utility.yul\":7599:7636   */\n  swap1\n  pop\n    /* \"#utility.yul\":7526:7643   */\n  swap3\n  swap2\n  pop\n  pop\n  jump\t// out\n    /* \"#utility.yul\":7649:7818   */\ntag_45:\n    /* \"#utility.yul\":7693:7699   */\n  0x00\n    /* \"#utility.yul\":7726:7777   */\n  tag_143\n    /* \"#utility.yul\":7774:7775   */\n  0x00\n    /* \"#utility.yul\":7770:7776   */\n  not\n    /* \"#utility.yul\":7762:7767   */\n  dup5\n    /* \"#utility.yul\":7759:7760   */\n  0x08\n    /* \"#utility.yul\":7755:7768   */\n  mul\n    /* \"#utility.yul\":7726:7777   */\n  tag_44\n  jump\t// in\ntag_143:\n    /* \"#utility.yul\":7722:7778   */\n  not\n    /* \"#utility.yul\":7807:7811   */\n  dup1\n    /* \"#utility.yul\":7801:7805   */\n  dup4\n    /* \"#utility.yul\":7797:7812   */\n  and\n    /* \"#utility.yul\":7787:7812   */\n  swap2\n  pop\n    /* \"#utility.yul\":7700:7818   */\n  pop\n    /* \"#utility.yul\":7649:7818   */\n  swap3\n  swap2\n  pop\n  pop\n  jump\t// out\n    /* \"#utility.yul\":7823:8118   */\ntag_46:\n    /* \"#utility.yul\":7899:7903   */\n  0x00\n    /* \"#utility.yul\":8045:8074   */\n  tag_145\n    /* \"#utility.yul\":8070:8073   */\n  dup4\n    /* \"#utility.yul\":8064:8068   */\n  dup4\n    /* \"#utility.yul\":8045:8074   */\n  tag_45\n  jump\t// in\ntag_145:\n    /* \"#utility.yul\":8037:8074   */\n  swap2\n  pop\n    /* \"#utility.yul\":8107:8110   */\n  dup3\n    /* \"#utility.yul\":8104:8105   */\n  0x02\n    /* \"#utility.yul\":8100:8111   */\n  mul\n    /* \"#utility.yul\":8094:8098   */\n  dup3\n    /* \"#utility.yul\":8091:8112   */\n  or\n    /* \"#utility.yul\":8083:8112   */\n  swap1\n  pop\n    /* \"#utility.yul\":7823:8118   */\n  swap3\n  swap2\n  pop\n  pop\n  jump\t// out\n    /* \"#utility.yul\":8123:9518   */\ntag_7:\n    /* \"#utility.yul\":8240:8277   */\n  tag_147\n    /* \"#utility.yul\":8273:8276   */\n  dup3\n    /* \"#utility.yul\":8240:8277   */\n  tag_29\n  jump\t// in\ntag_147:\n    /* \"#utility.yul\":8342:8360   */\n  0xffffffffffffffff\n    /* \"#utility.yul\":8334:8340   */\n  dup2\n    /* \"#utility.yul\":8331:8361   */\n  gt\n    /* \"#utility.yul\":8328:8384   */\n  iszero\n  tag_148\n  jumpi\n    /* \"#utility.yul\":8364:8382   */\n  tag_149\n  tag_16\n  jump\t// in\ntag_149:\n    /* \"#utility.yul\":8328:8384   */\ntag_148:\n    /* \"#utility.yul\":8408:8446   */\n  tag_150\n    /* \"#utility.yul\":8440:8444   */\n  dup3\n    /* \"#utility.yul\":8434:8445   */\n  sload\n    /* \"#utility.yul\":8408:8446   */\n  tag_31\n  jump\t// in\ntag_150:\n    /* \"#utility.yul\":8493:8560   */\n  tag_151\n    /* \"#utility.yul\":8553:8559   */\n  dup3\n    /* \"#utility.yul\":8545:8551   */\n  dup3\n    /* \"#utility.yul\":8539:8543   */\n  dup6\n    /* \"#utility.yul\":8493:8560   */\n  tag_43\n  jump\t// in\ntag_151:\n    /* \"#utility.yul\":8587:8588   */\n  0x00\n    /* \"#utility.yul\":8611:8615   */\n  0x20\n    /* \"#utility.yul\":8598:8615   */\n  swap1\n  pop\n    /* \"#utility.yul\":8643:8645   */\n  0x1f\n    /* \"#utility.yul\":8635:8641   */\n  dup4\n    /* \"#utility.yul\":8632:8646   */\n  gt\n    /* \"#utility.yul\":8660:8661   */\n  0x01\n    /* \"#utility.yul\":8655:9273   */\n  dup2\n  eq\n  tag_153\n  jumpi\n    /* \"#utility.yul\":9317:9318   */\n  0x00\n    /* \"#utility.yul\":9334:9340   */\n  dup5\n    /* \"#utility.yul\":9331:9408   */\n  iszero\n  tag_154\n  jumpi\n    /* \"#utility.yul\":9383:9392   */\n  dup3\n    /* \"#utility.yul\":9378:9381   */\n  dup8\n    /* \"#utility.yul\":9374:9393   */\n  add\n    /* \"#utility.yul\":9368:9394   */\n  mload\n    /* \"#utility.yul\":9359:9394   */\n  swap1\n  pop\n    /* \"#utility.yul\":9331:9408   */\ntag_154:\n    /* \"#utility.yul\":9434:9501   */\n  tag_155\n    /* \"#utility.yul\":9494:9500   */\n  dup6\n    /* \"#utility.yul\":9487:9492   */\n  dup3\n    /* \"#utility.yul\":9434:9501   */\n  tag_46\n  jump\t// in\ntag_155:\n    /* \"#utility.yul\":9428:9432   */\n  dup7\n    /* \"#utility.yul\":9421:9502   */\n  sstore\n    /* \"#utility.yul\":9290:9512   */\n  pop\n    /* \"#utility.yul\":8625:9512   */\n  jump(tag_152)\n    /* \"#utility.yul\":8655:9273   */\ntag_153:\n    /* \"#utility.yul\":8707:8711   */\n  0x1f\n    /* \"#utility.yul\":8703:8712   */\n  not\n    /* \"#utility.yul\":8695:8701   */\n  dup5\n    /* \"#utility.yul\":8691:8713   */\n  and\n    /* \"#utility.yul\":8741:8778   */\n  tag_156\n    /* \"#utility.yul\":8773:8777   */\n  dup7\n    /* \"#utility.yul\":8741:8778   */\n  tag_32\n  jump\t// in\ntag_156:\n    /* \"#utility.yul\":8800:8801   */\n  0x00\n    /* \"#utility.yul\":8814:9022   */\ntag_157:\n    /* \"#utility.yul\":8828:8835   */\n  dup3\n    /* \"#utility.yul\":8825:8826   */\n  dup2\n    /* \"#utility.yul\":8822:8836   */\n  lt\n    /* \"#utility.yul\":8814:9022   */\n  iszero\n  tag_159\n  jumpi\n    /* \"#utility.yul\":8907:8916   */\n  dup5\n    /* \"#utility.yul\":8902:8905   */\n  dup10\n    /* \"#utility.yul\":8898:8917   */\n  add\n    /* \"#utility.yul\":8892:8918   */\n  mload\n    /* \"#utility.yul\":8884:8890   */\n  dup3\n    /* \"#utility.yul\":8877:8919   */\n  sstore\n    /* \"#utility.yul\":8958:8959   */\n  0x01\n    /* \"#utility.yul\":8950:8956   */\n  dup3\n    /* \"#utility.yul\":8946:8960   */\n  add\n    /* \"#utility.yul\":8936:8960   */\n  swap2\n  pop\n    /* \"#utility.yul\":9005:9007   */\n  0x20\n    /* \"#utility.yul\":8994:9003   */\n  dup6\n    /* \"#utility.yul\":8990:9008   */\n  add\n    /* \"#utility.yul\":8977:9008   */\n  swap5\n  pop\n    /* \"#utility.yul\":8851:8855   */\n  0x20\n    /* \"#utility.yul\":8848:8849   */\n  dup2\n    /* \"#utility.yul\":8844:8856   */\n  add\n    /* \"#utility.yul\":8839:8856   */\n  swap1\n  pop\n    /* \"#utility.yul\":8814:9022   */\n  jump(tag_157)\ntag_159:\n    /* \"#utility.yul\":9050:9056   */\n  dup7\n    /* \"#utility.yul\":9041:9048   */\n  dup4\n    /* \"#utility.yul\":9038:9057   */\n  lt\n    /* \"#utility.yul\":9035:9214   */\n  iszero\n  tag_160\n  jumpi\n    /* \"#utility.yul\":9108:9117   */\n  dup5\n    /* \"#utility.yul\":9103:9106   */\n  dup10\n    /* \"#utility.yul\":9099:9118   */\n  add\n    /* \"#utility.yul\":9093:9119   */\n  mload\n    /* \"#utility.yul\":9151:9199   */\n  tag_161\n    /* \"#utility.yul\":9193:9197   */\n  0x1f\n    /* \"#utility.yul\":9185:9191   */\n  dup10\n    /* \"#utility.yul\":9181:9198   */\n  and\n    /* \"#utility.yul\":9170:9179   */\n  dup3\n    /* \"#utility.yul\":9151:9199   */\n  tag_45\n  jump\t// in\ntag_161:\n    /* \"#utility.yul\":9143:9149   */\n  dup4\n    /* \"#utility.yul\":9136:9200   */\n  sstore\n    /* \"#utility.yul\":9058:9214   */\n  pop\n    /* \"#utility.yul\":9035:9214   */\ntag_160:\n    /* \"#utility.yul\":9260:9261   */\n  0x01\n    /* \"#utility.yul\":9256:9257   */\n  0x02\n    /* \"#utility.yul\":9248:9254   */\n  dup9\n    /* \"#utility.yul\":9244:9258   */\n  mul\n    /* \"#utility.yul\":9240:9262   */\n  add\n    /* \"#utility.yul\":9234:9238   */\n  dup9\n    /* \"#utility.yul\":9227:9263   */\n  sstore\n    /* \"#utility.yul\":8662:9273   */\n  pop\n  pop\n  pop\n    /* \"#utility.yul\":8625:9512   */\ntag_152:\n  pop\n    /* \"#utility.yul\":8215:9518   */\n  pop\n  pop\n  pop\n    /* \"#utility.yul\":8123:9518   */\n  pop\n  pop\n  jump\t// out\n    /* \"Challenge-2-Polygon-Transaction-Optimization/polygon_transaction_optimization.sol\":57:1116  contract MyToken {... */\ntag_9:\n  dataSize(sub_0)\n  dup1\n  dataOffset(sub_0)\n  0x00\n  codecopy\n  0x00\n  return\nstop\n\nsub_0: assembly {\n        /* \"Challenge-2-Polygon-Transaction-Optimization/polygon_transaction_optimization.sol\":57:1116  contract MyToken {... */\n      mstore(0x40, 0x80)\n      callvalue\n      dup1\n      iszero\n      tag_1\n      jumpi\n      0x00\n      dup1\n      revert\n    tag_1:\n      pop\n      jumpi(tag_2, lt(calldatasize, 0x04))\n      shr(0xe0, calldataload(0x00))\n      dup1\n      0x3b3e672f\n      gt\n      tag_10\n      jumpi\n      dup1\n      0x3b3e672f\n      eq\n      tag_6\n      jumpi\n      dup1\n      0x70a08231\n      eq\n      tag_7\n      jumpi\n      dup1\n      0x95d89b41\n      eq\n      tag_8\n      jumpi\n      dup1\n      0xa9059cbb\n      eq\n      tag_9\n      jumpi\n      jump(tag_2)\n    tag_10:\n      dup1\n      0x06fdde03\n      eq\n      tag_3\n      jumpi\n      dup1\n      0x27e235e3\n      eq\n      tag_4\n      jumpi\n      dup1\n      0x313ce567\n      eq\n      tag_5\n      jumpi\n    tag_2:\n      0x00\n      dup1\n      revert\n        /* \"Challenge-2-Polygon-Transaction-Optimization/polygon_transaction_optimization.sol\":130:148  string public name */\n    tag_3:\n      tag_11\n      tag_12\n      jump\t// in\n    tag_11:\n      mload(0x40)\n      tag_13\n      swap2\n      swap1\n      tag_14\n      jump\t// in\n    tag_13:\n      mload(0x40)\n      dup1\n      swap2\n      sub\n      swap1\n      return\n        /* \"Challenge-2-Polygon-Transaction-Optimization/polygon_transaction_optimization.sol\":80:123  mapping(address => uint256) public balances */\n    tag_4:\n      tag_15\n      0x04\n      dup1\n      calldatasize\n      sub\n      dup2\n      add\n      swap1\n      tag_16\n      swap2\n      swap1\n      tag_17\n      jump\t// in\n    tag_16:\n      tag_18\n      jump\t// in\n    tag_15:\n      mload(0x40)\n      tag_19\n      swap2\n      swap1\n      tag_20\n      jump\t// in\n    tag_19:\n      mload(0x40)\n      dup1\n      swap2\n      sub\n      swap1\n      return\n        /* \"Challenge-2-Polygon-Transaction-Optimization/polygon_transaction_optimization.sol\":180:201  uint8 public decimals */\n    tag_5:\n      tag_21\n      tag_22\n      jump\t// in\n    tag_21:\n      mload(0x40)\n      tag_23\n      swap2\n      swap1\n      tag_24\n      jump\t// in\n    tag_23:\n      mload(0x40)\n      dup1\n      swap2\n      sub\n      swap1\n      return\n        /* \"Challenge-2-Polygon-Transaction-Optimization/polygon_transaction_optimization.sol\":698:995  function transferBatch(address[] calldata _to, uint256[] calldata _amounts) public {... */\n    tag_6:\n      tag_25\n      0x04\n      dup1\n      calldatasize\n      sub\n      dup2\n      add\n      swap1\n      tag_26\n      swap2\n      swap1\n      tag_27\n      jump\t// in\n    tag_26:\n      tag_28\n      jump\t// in\n    tag_25:\n      stop\n        /* \"Challenge-2-Polygon-Transaction-Optimization/polygon_transaction_optimization.sol\":1001:1114  function balanceOf(address _owner) public view returns (uint256 balance) {... */\n    tag_7:\n      tag_29\n      0x04\n      dup1\n      calldatasize\n      sub\n      dup2\n      add\n      swap1\n      tag_30\n      swap2\n      swap1\n      tag_17\n      jump\t// in\n    tag_30:\n      tag_31\n      jump\t// in\n    tag_29:\n      mload(0x40)\n      tag_32\n      swap2\n      swap1\n      tag_20\n      jump\t// in\n    tag_32:\n      mload(0x40)\n      dup1\n      swap2\n      sub\n      swap1\n      return\n        /* \"Challenge-2-Polygon-Transaction-Optimization/polygon_transaction_optimization.sol\":154:174  string public symbol */\n    tag_8:\n      tag_33\n      tag_34\n      jump\t// in\n    tag_33:\n      mload(0x40)\n      tag_35\n      swap2\n      swap1\n      tag_14\n      jump\t// in\n    tag_35:\n      mload(0x40)\n      dup1\n      swap2\n      sub\n      swap1\n      return\n        /* \"Challenge-2-Polygon-Transaction-Optimization/polygon_transaction_optimization.sol\":441:692  function transfer(address _to, uint256 _value) public returns (bool success) {... */\n    tag_9:\n      tag_36\n      0x04\n      dup1\n      calldatasize\n      sub\n      dup2\n      add\n      swap1\n      tag_37\n      swap2\n      swap1\n      tag_38\n      jump\t// in\n    tag_37:\n      tag_39\n      jump\t// in\n    tag_36:\n      mload(0x40)\n      tag_40\n      swap2\n      swap1\n      tag_41\n      jump\t// in\n    tag_40:\n      mload(0x40)\n      dup1\n      swap2\n      sub\n      swap1\n      return\n        /* \"Challenge-2-Polygon-Transaction-Optimization/polygon_transaction_optimization.sol\":130:148  string public name */\n    tag_12:\n      0x01\n      dup1\n      sload\n      tag_42\n      swap1\n      tag_43\n      jump\t// in\n    tag_42:\n      dup1\n      0x1f\n      add\n      0x20\n      dup1\n      swap2\n      div\n      mul\n      0x20\n      add\n      mload(0x40)\n      swap1\n      dup2\n      add\n      0x40\n      mstore\n      dup1\n      swap3\n      swap2\n      swap1\n      dup2\n      dup2\n      mstore\n      0x20\n      add\n      dup3\n      dup1\n      sload\n      tag_44\n      swap1\n      tag_43\n      jump\t// in\n    tag_44:\n      dup1\n      iszero\n      tag_45\n      jumpi\n      dup1\n      0x1f\n      lt\n      tag_46\n      jumpi\n      0x0100\n      dup1\n      dup4\n      sload\n      div\n      mul\n      dup4\n      mstore\n      swap2\n      0x20\n      add\n      swap2\n      jump(tag_45)\n    tag_46:\n      dup3\n      add\n      swap2\n      swap1\n      0x00\n      mstore\n      keccak256(0x00, 0x20)\n      swap1\n    tag_47:\n      dup2\n      sload\n      dup2\n      mstore\n      swap1\n      0x01\n      add\n      swap1\n      0x20\n      add\n      dup1\n      dup4\n      gt\n      tag_47\n      jumpi\n      dup3\n      swap1\n      sub\n      0x1f\n      and\n      dup3\n      add\n      swap2\n    tag_45:\n      pop\n      pop\n      pop\n      pop\n      pop\n      dup2\n      jump\t// out\n        /* \"Challenge-2-Polygon-Transaction-Optimization/polygon_transaction_optimization.sol\":80:123  mapping(address => uint256) public balances */\n    tag_18:\n      mstore(0x20, 0x00)\n      dup1\n      0x00\n      mstore\n      keccak256(0x00, 0x40)\n      0x00\n      swap2\n      pop\n      swap1\n      pop\n      sload\n      dup2\n      jump\t// out\n        /* \"Challenge-2-Polygon-Transaction-Optimization/polygon_transaction_optimization.sol\":180:201  uint8 public decimals */\n    tag_22:\n      0x03\n      0x00\n      swap1\n      sload\n      swap1\n      0x0100\n      exp\n      swap1\n      div\n      0xff\n      and\n      dup2\n      jump\t// out\n        /* \"Challenge-2-Polygon-Transaction-Optimization/polygon_transaction_optimization.sol\":698:995  function transferBatch(address[] calldata _to, uint256[] calldata _amounts) public {... */\n    tag_28:\n        /* \"Challenge-2-Polygon-Transaction-Optimization/polygon_transaction_optimization.sol\":813:821  _amounts */\n      dup2\n      dup2\n        /* \"Challenge-2-Polygon-Transaction-Optimization/polygon_transaction_optimization.sol\":813:828  _amounts.length */\n      swap1\n      pop\n        /* \"Challenge-2-Polygon-Transaction-Optimization/polygon_transaction_optimization.sol\":799:802  _to */\n      dup5\n      dup5\n        /* \"Challenge-2-Polygon-Transaction-Optimization/polygon_transaction_optimization.sol\":799:809  _to.length */\n      swap1\n      pop\n        /* \"Challenge-2-Polygon-Transaction-Optimization/polygon_transaction_optimization.sol\":799:828  _to.length == _amounts.length */\n      eq\n        /* \"Challenge-2-Polygon-Transaction-Optimization/polygon_transaction_optimization.sol\":791:884  require(_to.length == _amounts.length, \"Address array and amounts array length must be same\") */\n      tag_49\n      jumpi\n      mload(0x40)\n      0x08c379a000000000000000000000000000000000000000000000000000000000\n      dup2\n      mstore\n      0x04\n      add\n      tag_50\n      swap1\n      tag_51\n      jump\t// in\n    tag_50:\n      mload(0x40)\n      dup1\n      swap2\n      sub\n      swap1\n      revert\n    tag_49:\n        /* \"Challenge-2-Polygon-Transaction-Optimization/polygon_transaction_optimization.sol\":899:908  uint256 i */\n      0x00\n        /* \"Challenge-2-Polygon-Transaction-Optimization/polygon_transaction_optimization.sol\":895:989  for(uint256 i = 0; i < _to.length; i++) {... */\n    tag_52:\n        /* \"Challenge-2-Polygon-Transaction-Optimization/polygon_transaction_optimization.sol\":918:921  _to */\n      dup5\n      dup5\n        /* \"Challenge-2-Polygon-Transaction-Optimization/polygon_transaction_optimization.sol\":918:928  _to.length */\n      swap1\n      pop\n        /* \"Challenge-2-Polygon-Transaction-Optimization/polygon_transaction_optimization.sol\":914:915  i */\n      dup2\n        /* \"Challenge-2-Polygon-Transaction-Optimization/polygon_transaction_optimization.sol\":914:928  i < _to.length */\n      lt\n        /* \"Challenge-2-Polygon-Transaction-Optimization/polygon_transaction_optimization.sol\":895:989  for(uint256 i = 0; i < _to.length; i++) {... */\n      iszero\n      tag_53\n      jumpi\n        /* \"Challenge-2-Polygon-Transaction-Optimization/polygon_transaction_optimization.sol\":949:978  transfer(_to[i], _amounts[i]) */\n      tag_55\n        /* \"Challenge-2-Polygon-Transaction-Optimization/polygon_transaction_optimization.sol\":958:961  _to */\n      dup6\n      dup6\n        /* \"Challenge-2-Polygon-Transaction-Optimization/polygon_transaction_optimization.sol\":962:963  i */\n      dup4\n        /* \"Challenge-2-Polygon-Transaction-Optimization/polygon_transaction_optimization.sol\":958:964  _to[i] */\n      dup2\n      dup2\n      lt\n      tag_56\n      jumpi\n      tag_57\n      tag_58\n      jump\t// in\n    tag_57:\n    tag_56:\n      swap1\n      pop\n      0x20\n      mul\n      add\n      0x20\n      dup2\n      add\n      swap1\n      tag_59\n      swap2\n      swap1\n      tag_17\n      jump\t// in\n    tag_59:\n        /* \"Challenge-2-Polygon-Transaction-Optimization/polygon_transaction_optimization.sol\":966:974  _amounts */\n      dup5\n      dup5\n        /* \"Challenge-2-Polygon-Transaction-Optimization/polygon_transaction_optimization.sol\":975:976  i */\n      dup5\n        /* \"Challenge-2-Polygon-Transaction-Optimization/polygon_transaction_optimization.sol\":966:977  _amounts[i] */\n      dup2\n      dup2\n      lt\n      tag_60\n      jumpi\n      tag_61\n      tag_58\n      jump\t// in\n    tag_61:\n    tag_60:\n      swap1\n      pop\n      0x20\n      mul\n      add\n      calldataload\n        /* \"Challenge-2-Polygon-Transaction-Optimization/polygon_transaction_optimization.sol\":949:957  transfer */\n      tag_39\n        /* \"Challenge-2-Polygon-Transaction-Optimization/polygon_transaction_optimization.sol\":949:978  transfer(_to[i], _amounts[i]) */\n      jump\t// in\n    tag_55:\n      pop\n        /* \"Challenge-2-Polygon-Transaction-Optimization/polygon_transaction_optimization.sol\":930:933  i++ */\n      dup1\n      dup1\n      tag_62\n      swap1\n      tag_63\n      jump\t// in\n    tag_62:\n      swap2\n      pop\n      pop\n        /* \"Challenge-2-Polygon-Transaction-Optimization/polygon_transaction_optimization.sol\":895:989  for(uint256 i = 0; i < _to.length; i++) {... */\n      jump(tag_52)\n    tag_53:\n      pop\n        /* \"Challenge-2-Polygon-Transaction-Optimization/polygon_transaction_optimization.sol\":698:995  function transferBatch(address[] calldata _to, uint256[] calldata _amounts) public {... */\n      pop\n      pop\n      pop\n      pop\n      jump\t// out\n        /* \"Challenge-2-Polygon-Transaction-Optimization/polygon_transaction_optimization.sol\":1001:1114  function balanceOf(address _owner) public view returns (uint256 balance) {... */\n    tag_31:\n        /* \"Challenge-2-Polygon-Transaction-Optimization/polygon_transaction_optimization.sol\":1057:1072  uint256 balance */\n      0x00\n        /* \"Challenge-2-Polygon-Transaction-Optimization/polygon_transaction_optimization.sol\":1091:1099  balances */\n      dup1\n        /* \"Challenge-2-Polygon-Transaction-Optimization/polygon_transaction_optimization.sol\":1091:1107  balances[_owner] */\n      0x00\n        /* \"Challenge-2-Polygon-Transaction-Optimization/polygon_transaction_optimization.sol\":1100:1106  _owner */\n      dup4\n        /* \"Challenge-2-Polygon-Transaction-Optimization/polygon_transaction_optimization.sol\":1091:1107  balances[_owner] */\n      0xffffffffffffffffffffffffffffffffffffffff\n      and\n      0xffffffffffffffffffffffffffffffffffffffff\n      and\n      dup2\n      mstore\n      0x20\n      add\n      swap1\n      dup2\n      mstore\n      0x20\n      add\n      0x00\n      keccak256\n      sload\n        /* \"Challenge-2-Polygon-Transaction-Optimization/polygon_transaction_optimization.sol\":1084:1107  return balances[_owner] */\n      swap1\n      pop\n        /* \"Challenge-2-Polygon-Transaction-Optimization/polygon_transaction_optimization.sol\":1001:1114  function balanceOf(address _owner) public view returns (uint256 balance) {... */\n      swap2\n      swap1\n      pop\n      jump\t// out\n        /* \"Challenge-2-Polygon-Transaction-Optimization/polygon_transaction_optimization.sol\":154:174  string public symbol */\n    tag_34:\n      0x02\n      dup1\n      sload\n      tag_65\n      swap1\n      tag_43\n      jump\t// in\n    tag_65:\n      dup1\n      0x1f\n      add\n      0x20\n      dup1\n      swap2\n      div\n      mul\n      0x20\n      add\n      mload(0x40)\n      swap1\n      dup2\n      add\n      0x40\n      mstore\n      dup1\n      swap3\n      swap2\n      swap1\n      dup2\n      dup2\n      mstore\n      0x20\n      add\n      dup3\n      dup1\n      sload\n      tag_66\n      swap1\n      tag_43\n      jump\t// in\n    tag_66:\n      dup1\n      iszero\n      tag_67\n      jumpi\n      dup1\n      0x1f\n      lt\n      tag_68\n      jumpi\n      0x0100\n      dup1\n      dup4\n      sload\n      div\n      mul\n      dup4\n      mstore\n      swap2\n      0x20\n      add\n      swap2\n      jump(tag_67)\n    tag_68:\n      dup3\n      add\n      swap2\n      swap1\n      0x00\n      mstore\n      keccak256(0x00, 0x20)\n      swap1\n    tag_69:\n      dup2\n      sload\n      dup2\n      mstore\n      swap1\n      0x01\n      add\n      swap1\n      0x20\n      add\n      dup1\n      dup4\n      gt\n      tag_69\n      jumpi\n      dup3\n      swap1\n      sub\n      0x1f\n      and\n      dup3\n      add\n      swap2\n    tag_67:\n      pop\n      pop\n      pop\n      pop\n      pop\n      dup2\n      jump\t// out\n        /* \"Challenge-2-Polygon-Transaction-Optimization/polygon_transaction_optimization.sol\":441:692  function transfer(address _to, uint256 _value) public returns (bool success) {... */\n    tag_39:\n        /* \"Challenge-2-Polygon-Transaction-Optimization/polygon_transaction_optimization.sol\":504:516  bool success */\n      0x00\n        /* \"Challenge-2-Polygon-Transaction-Optimization/polygon_transaction_optimization.sol\":560:566  _value */\n      dup2\n        /* \"Challenge-2-Polygon-Transaction-Optimization/polygon_transaction_optimization.sol\":536:544  balances */\n      0x00\n        /* \"Challenge-2-Polygon-Transaction-Optimization/polygon_transaction_optimization.sol\":536:556  balances[msg.sender] */\n      dup1\n        /* \"Challenge-2-Polygon-Transaction-Optimization/polygon_transaction_optimization.sol\":545:555  msg.sender */\n      caller\n        /* \"Challenge-2-Polygon-Transaction-Optimization/polygon_transaction_optimization.sol\":536:556  balances[msg.sender] */\n      0xffffffffffffffffffffffffffffffffffffffff\n      and\n      0xffffffffffffffffffffffffffffffffffffffff\n      and\n      dup2\n      mstore\n      0x20\n      add\n      swap1\n      dup2\n      mstore\n      0x20\n      add\n      0x00\n      keccak256\n      sload\n        /* \"Challenge-2-Polygon-Transaction-Optimization/polygon_transaction_optimization.sol\":536:566  balances[msg.sender] >= _value */\n      lt\n      iszero\n        /* \"Challenge-2-Polygon-Transaction-Optimization/polygon_transaction_optimization.sol\":528:591  require(balances[msg.sender] >= _value, \"Insufficient balance\") */\n      tag_71\n      jumpi\n      mload(0x40)\n      0x08c379a000000000000000000000000000000000000000000000000000000000\n      dup2\n      mstore\n      0x04\n      add\n      tag_72\n      swap1\n      tag_73\n      jump\t// in\n    tag_72:\n      mload(0x40)\n      dup1\n      swap2\n      sub\n      swap1\n      revert\n    tag_71:\n        /* \"Challenge-2-Polygon-Transaction-Optimization/polygon_transaction_optimization.sol\":625:631  _value */\n      dup2\n        /* \"Challenge-2-Polygon-Transaction-Optimization/polygon_transaction_optimization.sol\":601:609  balances */\n      0x00\n        /* \"Challenge-2-Polygon-Transaction-Optimization/polygon_transaction_optimization.sol\":601:621  balances[msg.sender] */\n      dup1\n        /* \"Challenge-2-Polygon-Transaction-Optimization/polygon_transaction_optimization.sol\":610:620  msg.sender */\n      caller\n        /* \"Challenge-2-Polygon-Transaction-Optimization/polygon_transaction_optimization.sol\":601:621  balances[msg.sender] */\n      0xffffffffffffffffffffffffffffffffffffffff\n      and\n      0xffffffffffffffffffffffffffffffffffffffff\n      and\n      dup2\n      mstore\n      0x20\n      add\n      swap1\n      dup2\n      mstore\n      0x20\n      add\n      0x00\n      keccak256\n      0x00\n        /* \"Challenge-2-Polygon-Transaction-Optimization/polygon_transaction_optimization.sol\":601:631  balances[msg.sender] -= _value */\n      dup3\n      dup3\n      sload\n      tag_74\n      swap2\n      swap1\n      tag_75\n      jump\t// in\n    tag_74:\n      swap3\n      pop\n      pop\n      dup2\n      swap1\n      sstore\n      pop\n        /* \"Challenge-2-Polygon-Transaction-Optimization/polygon_transaction_optimization.sol\":658:664  _value */\n      dup2\n        /* \"Challenge-2-Polygon-Transaction-Optimization/polygon_transaction_optimization.sol\":641:649  balances */\n      0x00\n        /* \"Challenge-2-Polygon-Transaction-Optimization/polygon_transaction_optimization.sol\":641:654  balances[_to] */\n      dup1\n        /* \"Challenge-2-Polygon-Transaction-Optimization/polygon_transaction_optimization.sol\":650:653  _to */\n      dup6\n        /* \"Challenge-2-Polygon-Transaction-Optimization/polygon_transaction_optimization.sol\":641:654  balances[_to] */\n      0xffffffffffffffffffffffffffffffffffffffff\n      and\n      0xffffffffffffffffffffffffffffffffffffffff\n      and\n      dup2\n      mstore\n      0x20\n      add\n      swap1\n      dup2\n      mstore\n      0x20\n      add\n      0x00\n      keccak256\n      0x00\n        /* \"Challenge-2-Polygon-Transaction-Optimization/polygon_transaction_optimization.sol\":641:664  balances[_to] += _value */\n      dup3\n      dup3\n      sload\n      tag_76\n      swap2\n      swap1\n      tag_77\n      jump\t// in\n    tag_76:\n      swap3\n      pop\n      pop\n      dup2\n      swap1\n      sstore\n      pop\n        /* \"Challenge-2-Polygon-Transaction-Optimization/polygon_transaction_optimization.sol\":681:685  true */\n      0x01\n        /* \"Challenge-2-Polygon-Transaction-Optimization/polygon_transaction_optimization.sol\":674:685  return true */\n      swap1\n      pop\n        /* \"Challenge-2-Polygon-Transaction-Optimization/polygon_transaction_optimization.sol\":441:692  function transfer(address _to, uint256 _value) public returns (bool success) {... */\n      swap3\n      swap2\n      pop\n      pop\n      jump\t// out\n        /* \"#utility.yul\":7:106   */\n    tag_78:\n        /* \"#utility.yul\":59:65   */\n      0x00\n        /* \"#utility.yul\":93:98   */\n      dup2\n        /* \"#utility.yul\":87:99   */\n      mload\n        /* \"#utility.yul\":77:99   */\n      swap1\n      pop\n        /* \"#utility.yul\":7:106   */\n      swap2\n      swap1\n      pop\n      jump\t// out\n        /* \"#utility.yul\":112:281   */\n    tag_79:\n        /* \"#utility.yul\":196:207   */\n      0x00\n        /* \"#utility.yul\":230:236   */\n      dup3\n        /* \"#utility.yul\":225:228   */\n      dup3\n        /* \"#utility.yul\":218:237   */\n      mstore\n        /* \"#utility.yul\":270:274   */\n      0x20\n        /* \"#utility.yul\":265:268   */\n      dup3\n        /* \"#utility.yul\":261:275   */\n      add\n        /* \"#utility.yul\":246:275   */\n      swap1\n      pop\n        /* \"#utility.yul\":112:281   */\n      swap3\n      swap2\n      pop\n      pop\n      jump\t// out\n        /* \"#utility.yul\":287:533   */\n    tag_80:\n        /* \"#utility.yul\":368:369   */\n      0x00\n        /* \"#utility.yul\":378:491   */\n    tag_113:\n        /* \"#utility.yul\":392:398   */\n      dup4\n        /* \"#utility.yul\":389:390   */\n      dup2\n        /* \"#utility.yul\":386:399   */\n      lt\n        /* \"#utility.yul\":378:491   */\n      iszero\n      tag_115\n      jumpi\n        /* \"#utility.yul\":477:478   */\n      dup1\n        /* \"#utility.yul\":472:475   */\n      dup3\n        /* \"#utility.yul\":468:479   */\n      add\n        /* \"#utility.yul\":462:480   */\n      mload\n        /* \"#utility.yul\":458:459   */\n      dup2\n        /* \"#utility.yul\":453:456   */\n      dup5\n        /* \"#utility.yul\":449:460   */\n      add\n        /* \"#utility.yul\":442:481   */\n      mstore\n        /* \"#utility.yul\":414:416   */\n      0x20\n        /* \"#utility.yul\":411:412   */\n      dup2\n        /* \"#utility.yul\":407:417   */\n      add\n        /* \"#utility.yul\":402:417   */\n      swap1\n      pop\n        /* \"#utility.yul\":378:491   */\n      jump(tag_113)\n    tag_115:\n        /* \"#utility.yul\":525:526   */\n      0x00\n        /* \"#utility.yul\":516:522   */\n      dup5\n        /* \"#utility.yul\":511:514   */\n      dup5\n        /* \"#utility.yul\":507:523   */\n      add\n        /* \"#utility.yul\":500:527   */\n      mstore\n        /* \"#utility.yul\":349:533   */\n      pop\n        /* \"#utility.yul\":287:533   */\n      pop\n      pop\n      pop\n      jump\t// out\n        /* \"#utility.yul\":539:641   */\n    tag_81:\n        /* \"#utility.yul\":580:586   */\n      0x00\n        /* \"#utility.yul\":631:633   */\n      0x1f\n        /* \"#utility.yul\":627:634   */\n      not\n        /* \"#utility.yul\":622:624   */\n      0x1f\n        /* \"#utility.yul\":615:620   */\n      dup4\n        /* \"#utility.yul\":611:625   */\n      add\n        /* \"#utility.yul\":607:635   */\n      and\n        /* \"#utility.yul\":597:635   */\n      swap1\n      pop\n        /* \"#utility.yul\":539:641   */\n      swap2\n      swap1\n      pop\n      jump\t// out\n        /* \"#utility.yul\":647:1024   */\n    tag_82:\n        /* \"#utility.yul\":735:738   */\n      0x00\n        /* \"#utility.yul\":763:802   */\n      tag_118\n        /* \"#utility.yul\":796:801   */\n      dup3\n        /* \"#utility.yul\":763:802   */\n      tag_78\n      jump\t// in\n    tag_118:\n        /* \"#utility.yul\":818:889   */\n      tag_119\n        /* \"#utility.yul\":882:888   */\n      dup2\n        /* \"#utility.yul\":877:880   */\n      dup6\n        /* \"#utility.yul\":818:889   */\n      tag_79\n      jump\t// in\n    tag_119:\n        /* \"#utility.yul\":811:889   */\n      swap4\n      pop\n        /* \"#utility.yul\":898:963   */\n      tag_120\n        /* \"#utility.yul\":956:962   */\n      dup2\n        /* \"#utility.yul\":951:954   */\n      dup6\n        /* \"#utility.yul\":944:948   */\n      0x20\n        /* \"#utility.yul\":937:942   */\n      dup7\n        /* \"#utility.yul\":933:949   */\n      add\n        /* \"#utility.yul\":898:963   */\n      tag_80\n      jump\t// in\n    tag_120:\n        /* \"#utility.yul\":988:1017   */\n      tag_121\n        /* \"#utility.yul\":1010:1016   */\n      dup2\n        /* \"#utility.yul\":988:1017   */\n      tag_81\n      jump\t// in\n    tag_121:\n        /* \"#utility.yul\":983:986   */\n      dup5\n        /* \"#utility.yul\":979:1018   */\n      add\n        /* \"#utility.yul\":972:1018   */\n      swap2\n      pop\n        /* \"#utility.yul\":739:1024   */\n      pop\n        /* \"#utility.yul\":647:1024   */\n      swap3\n      swap2\n      pop\n      pop\n      jump\t// out\n        /* \"#utility.yul\":1030:1343   */\n    tag_14:\n        /* \"#utility.yul\":1143:1147   */\n      0x00\n        /* \"#utility.yul\":1181:1183   */\n      0x20\n        /* \"#utility.yul\":1170:1179   */\n      dup3\n        /* \"#utility.yul\":1166:1184   */\n      add\n        /* \"#utility.yul\":1158:1184   */\n      swap1\n      pop\n        /* \"#utility.yul\":1230:1239   */\n      dup2\n        /* \"#utility.yul\":1224:1228   */\n      dup2\n        /* \"#utility.yul\":1220:1240   */\n      sub\n        /* \"#utility.yul\":1216:1217   */\n      0x00\n        /* \"#utility.yul\":1205:1214   */\n      dup4\n        /* \"#utility.yul\":1201:1218   */\n      add\n        /* \"#utility.yul\":1194:1241   */\n      mstore\n        /* \"#utility.yul\":1258:1336   */\n      tag_123\n        /* \"#utility.yul\":1331:1335   */\n      dup2\n        /* \"#utility.yul\":1322:1328   */\n      dup5\n        /* \"#utility.yul\":1258:1336   */\n      tag_82\n      jump\t// in\n    tag_123:\n        /* \"#utility.yul\":1250:1336   */\n      swap1\n      pop\n        /* \"#utility.yul\":1030:1343   */\n      swap3\n      swap2\n      pop\n      pop\n      jump\t// out\n        /* \"#utility.yul\":1430:1547   */\n    tag_84:\n        /* \"#utility.yul\":1539:1540   */\n      0x00\n        /* \"#utility.yul\":1536:1537   */\n      dup1\n        /* \"#utility.yul\":1529:1541   */\n      revert\n        /* \"#utility.yul\":1553:1670   */\n    tag_85:\n        /* \"#utility.yul\":1662:1663   */\n      0x00\n        /* \"#utility.yul\":1659:1660   */\n      dup1\n        /* \"#utility.yul\":1652:1664   */\n      revert\n        /* \"#utility.yul\":1676:1802   */\n    tag_86:\n        /* \"#utility.yul\":1713:1720   */\n      0x00\n        /* \"#utility.yul\":1753:1795   */\n      0xffffffffffffffffffffffffffffffffffffffff\n        /* \"#utility.yul\":1746:1751   */\n      dup3\n        /* \"#utility.yul\":1742:1796   */\n      and\n        /* \"#utility.yul\":1731:1796   */\n      swap1\n      pop\n        /* \"#utility.yul\":1676:1802   */\n      swap2\n      swap1\n      pop\n      jump\t// out\n        /* \"#utility.yul\":1808:1904   */\n    tag_87:\n        /* \"#utility.yul\":1845:1852   */\n      0x00\n        /* \"#utility.yul\":1874:1898   */\n      tag_129\n        /* \"#utility.yul\":1892:1897   */\n      dup3\n        /* \"#utility.yul\":1874:1898   */\n      tag_86\n      jump\t// in\n    tag_129:\n        /* \"#utility.yul\":1863:1898   */\n      swap1\n      pop\n        /* \"#utility.yul\":1808:1904   */\n      swap2\n      swap1\n      pop\n      jump\t// out\n        /* \"#utility.yul\":1910:2032   */\n    tag_88:\n        /* \"#utility.yul\":1983:2007   */\n      tag_131\n        /* \"#utility.yul\":2001:2006   */\n      dup2\n        /* \"#utility.yul\":1983:2007   */\n      tag_87\n      jump\t// in\n    tag_131:\n        /* \"#utility.yul\":1976:1981   */\n      dup2\n        /* \"#utility.yul\":1973:2008   */\n      eq\n        /* \"#utility.yul\":1963:2026   */\n      tag_132\n      jumpi\n        /* \"#utility.yul\":2022:2023   */\n      0x00\n        /* \"#utility.yul\":2019:2020   */\n      dup1\n        /* \"#utility.yul\":2012:2024   */\n      revert\n        /* \"#utility.yul\":1963:2026   */\n    tag_132:\n        /* \"#utility.yul\":1910:2032   */\n      pop\n      jump\t// out\n        /* \"#utility.yul\":2038:2177   */\n    tag_89:\n        /* \"#utility.yul\":2084:2089   */\n      0x00\n        /* \"#utility.yul\":2122:2128   */\n      dup2\n        /* \"#utility.yul\":2109:2129   */\n      calldataload\n        /* \"#utility.yul\":2100:2129   */\n      swap1\n      pop\n        /* \"#utility.yul\":2138:2171   */\n      tag_134\n        /* \"#utility.yul\":2165:2170   */\n      dup2\n        /* \"#utility.yul\":2138:2171   */\n      tag_88\n      jump\t// in\n    tag_134:\n        /* \"#utility.yul\":2038:2177   */\n      swap3\n      swap2\n      pop\n      pop\n      jump\t// out\n        /* \"#utility.yul\":2183:2512   */\n    tag_17:\n        /* \"#utility.yul\":2242:2248   */\n      0x00\n        /* \"#utility.yul\":2291:2293   */\n      0x20\n        /* \"#utility.yul\":2279:2288   */\n      dup3\n        /* \"#utility.yul\":2270:2277   */\n      dup5\n        /* \"#utility.yul\":2266:2289   */\n      sub\n        /* \"#utility.yul\":2262:2294   */\n      slt\n        /* \"#utility.yul\":2259:2378   */\n      iszero\n      tag_136\n      jumpi\n        /* \"#utility.yul\":2297:2376   */\n      tag_137\n      tag_84\n      jump\t// in\n    tag_137:\n        /* \"#utility.yul\":2259:2378   */\n    tag_136:\n        /* \"#utility.yul\":2417:2418   */\n      0x00\n        /* \"#utility.yul\":2442:2495   */\n      tag_138\n        /* \"#utility.yul\":2487:2494   */\n      dup5\n        /* \"#utility.yul\":2478:2484   */\n      dup3\n        /* \"#utility.yul\":2467:2476   */\n      dup6\n        /* \"#utility.yul\":2463:2485   */\n      add\n        /* \"#utility.yul\":2442:2495   */\n      tag_89\n      jump\t// in\n    tag_138:\n        /* \"#utility.yul\":2432:2495   */\n      swap2\n      pop\n        /* \"#utility.yul\":2388:2505   */\n      pop\n        /* \"#utility.yul\":2183:2512   */\n      swap3\n      swap2\n      pop\n      pop\n      jump\t// out\n        /* \"#utility.yul\":2518:2595   */\n    tag_90:\n        /* \"#utility.yul\":2555:2562   */\n      0x00\n        /* \"#utility.yul\":2584:2589   */\n      dup2\n        /* \"#utility.yul\":2573:2589   */\n      swap1\n      pop\n        /* \"#utility.yul\":2518:2595   */\n      swap2\n      swap1\n      pop\n      jump\t// out\n        /* \"#utility.yul\":2601:2719   */\n    tag_91:\n        /* \"#utility.yul\":2688:2712   */\n      tag_141\n        /* \"#utility.yul\":2706:2711   */\n      dup2\n        /* \"#utility.yul\":2688:2712   */\n      tag_90\n      jump\t// in\n    tag_141:\n        /* \"#utility.yul\":2683:2686   */\n      dup3\n        /* \"#utility.yul\":2676:2713   */\n      mstore\n        /* \"#utility.yul\":2601:2719   */\n      pop\n      pop\n      jump\t// out\n        /* \"#utility.yul\":2725:2947   */\n    tag_20:\n        /* \"#utility.yul\":2818:2822   */\n      0x00\n        /* \"#utility.yul\":2856:2858   */\n      0x20\n        /* \"#utility.yul\":2845:2854   */\n      dup3\n        /* \"#utility.yul\":2841:2859   */\n      add\n        /* \"#utility.yul\":2833:2859   */\n      swap1\n      pop\n        /* \"#utility.yul\":2869:2940   */\n      tag_143\n        /* \"#utility.yul\":2937:2938   */\n      0x00\n        /* \"#utility.yul\":2926:2935   */\n      dup4\n        /* \"#utility.yul\":2922:2939   */\n      add\n        /* \"#utility.yul\":2913:2919   */\n      dup5\n        /* \"#utility.yul\":2869:2940   */\n      tag_91\n      jump\t// in\n    tag_143:\n        /* \"#utility.yul\":2725:2947   */\n      swap3\n      swap2\n      pop\n      pop\n      jump\t// out\n        /* \"#utility.yul\":2953:3039   */\n    tag_92:\n        /* \"#utility.yul\":2988:2995   */\n      0x00\n        /* \"#utility.yul\":3028:3032   */\n      0xff\n        /* \"#utility.yul\":3021:3026   */\n      dup3\n        /* \"#utility.yul\":3017:3033   */\n      and\n        /* \"#utility.yul\":3006:3033   */\n      swap1\n      pop\n        /* \"#utility.yul\":2953:3039   */\n      swap2\n      swap1\n      pop\n      jump\t// out\n        /* \"#utility.yul\":3045:3157   */\n    tag_93:\n        /* \"#utility.yul\":3128:3150   */\n      tag_146\n        /* \"#utility.yul\":3144:3149   */\n      dup2\n        /* \"#utility.yul\":3128:3150   */\n      tag_92\n      jump\t// in\n    tag_146:\n        /* \"#utility.yul\":3123:3126   */\n      dup3\n        /* \"#utility.yul\":3116:3151   */\n      mstore\n        /* \"#utility.yul\":3045:3157   */\n      pop\n      pop\n      jump\t// out\n        /* \"#utility.yul\":3163:3377   */\n    tag_24:\n        /* \"#utility.yul\":3252:3256   */\n      0x00\n        /* \"#utility.yul\":3290:3292   */\n      0x20\n        /* \"#utility.yul\":3279:3288   */\n      dup3\n        /* \"#utility.yul\":3275:3293   */\n      add\n        /* \"#utility.yul\":3267:3293   */\n      swap1\n      pop\n        /* \"#utility.yul\":3303:3370   */\n      tag_148\n        /* \"#utility.yul\":3367:3368   */\n      0x00\n        /* \"#utility.yul\":3356:3365   */\n      dup4\n        /* \"#utility.yul\":3352:3369   */\n      add\n        /* \"#utility.yul\":3343:3349   */\n      dup5\n        /* \"#utility.yul\":3303:3370   */\n      tag_93\n      jump\t// in\n    tag_148:\n        /* \"#utility.yul\":3163:3377   */\n      swap3\n      swap2\n      pop\n      pop\n      jump\t// out\n        /* \"#utility.yul\":3383:3500   */\n    tag_94:\n        /* \"#utility.yul\":3492:3493   */\n      0x00\n        /* \"#utility.yul\":3489:3490   */\n      dup1\n        /* \"#utility.yul\":3482:3494   */\n      revert\n        /* \"#utility.yul\":3506:3623   */\n    tag_95:\n        /* \"#utility.yul\":3615:3616   */\n      0x00\n        /* \"#utility.yul\":3612:3613   */\n      dup1\n        /* \"#utility.yul\":3605:3617   */\n      revert\n        /* \"#utility.yul\":3629:3746   */\n    tag_96:\n        /* \"#utility.yul\":3738:3739   */\n      0x00\n        /* \"#utility.yul\":3735:3736   */\n      dup1\n        /* \"#utility.yul\":3728:3740   */\n      revert\n        /* \"#utility.yul\":3769:4337   */\n    tag_97:\n        /* \"#utility.yul\":3842:3850   */\n      0x00\n        /* \"#utility.yul\":3852:3858   */\n      dup1\n        /* \"#utility.yul\":3902:3905   */\n      dup4\n        /* \"#utility.yul\":3895:3899   */\n      0x1f\n        /* \"#utility.yul\":3887:3893   */\n      dup5\n        /* \"#utility.yul\":3883:3900   */\n      add\n        /* \"#utility.yul\":3879:3906   */\n      slt\n        /* \"#utility.yul\":3869:3991   */\n      tag_153\n      jumpi\n        /* \"#utility.yul\":3910:3989   */\n      tag_154\n      tag_94\n      jump\t// in\n    tag_154:\n        /* \"#utility.yul\":3869:3991   */\n    tag_153:\n        /* \"#utility.yul\":4023:4029   */\n      dup3\n        /* \"#utility.yul\":4010:4030   */\n      calldataload\n        /* \"#utility.yul\":4000:4030   */\n      swap1\n      pop\n        /* \"#utility.yul\":4053:4071   */\n      0xffffffffffffffff\n        /* \"#utility.yul\":4045:4051   */\n      dup2\n        /* \"#utility.yul\":4042:4072   */\n      gt\n        /* \"#utility.yul\":4039:4156   */\n      iszero\n      tag_155\n      jumpi\n        /* \"#utility.yul\":4075:4154   */\n      tag_156\n      tag_95\n      jump\t// in\n    tag_156:\n        /* \"#utility.yul\":4039:4156   */\n    tag_155:\n        /* \"#utility.yul\":4189:4193   */\n      0x20\n        /* \"#utility.yul\":4181:4187   */\n      dup4\n        /* \"#utility.yul\":4177:4194   */\n      add\n        /* \"#utility.yul\":4165:4194   */\n      swap2\n      pop\n        /* \"#utility.yul\":4243:4246   */\n      dup4\n        /* \"#utility.yul\":4235:4239   */\n      0x20\n        /* \"#utility.yul\":4227:4233   */\n      dup3\n        /* \"#utility.yul\":4223:4240   */\n      mul\n        /* \"#utility.yul\":4213:4221   */\n      dup4\n        /* \"#utility.yul\":4209:4241   */\n      add\n        /* \"#utility.yul\":4206:4247   */\n      gt\n        /* \"#utility.yul\":4203:4331   */\n      iszero\n      tag_157\n      jumpi\n        /* \"#utility.yul\":4250:4329   */\n      tag_158\n      tag_96\n      jump\t// in\n    tag_158:\n        /* \"#utility.yul\":4203:4331   */\n    tag_157:\n        /* \"#utility.yul\":3769:4337   */\n      swap3\n      pop\n      swap3\n      swap1\n      pop\n      jump\t// out\n        /* \"#utility.yul\":4360:4928   */\n    tag_98:\n        /* \"#utility.yul\":4433:4441   */\n      0x00\n        /* \"#utility.yul\":4443:4449   */\n      dup1\n        /* \"#utility.yul\":4493:4496   */\n      dup4\n        /* \"#utility.yul\":4486:4490   */\n      0x1f\n        /* \"#utility.yul\":4478:4484   */\n      dup5\n        /* \"#utility.yul\":4474:4491   */\n      add\n        /* \"#utility.yul\":4470:4497   */\n      slt\n        /* \"#utility.yul\":4460:4582   */\n      tag_160\n      jumpi\n        /* \"#utility.yul\":4501:4580   */\n      tag_161\n      tag_94\n      jump\t// in\n    tag_161:\n        /* \"#utility.yul\":4460:4582   */\n    tag_160:\n        /* \"#utility.yul\":4614:4620   */\n      dup3\n        /* \"#utility.yul\":4601:4621   */\n      calldataload\n        /* \"#utility.yul\":4591:4621   */\n      swap1\n      pop\n        /* \"#utility.yul\":4644:4662   */\n      0xffffffffffffffff\n        /* \"#utility.yul\":4636:4642   */\n      dup2\n        /* \"#utility.yul\":4633:4663   */\n      gt\n        /* \"#utility.yul\":4630:4747   */\n      iszero\n      tag_162\n      jumpi\n        /* \"#utility.yul\":4666:4745   */\n      tag_163\n      tag_95\n      jump\t// in\n    tag_163:\n        /* \"#utility.yul\":4630:4747   */\n    tag_162:\n        /* \"#utility.yul\":4780:4784   */\n      0x20\n        /* \"#utility.yul\":4772:4778   */\n      dup4\n        /* \"#utility.yul\":4768:4785   */\n      add\n        /* \"#utility.yul\":4756:4785   */\n      swap2\n      pop\n        /* \"#utility.yul\":4834:4837   */\n      dup4\n        /* \"#utility.yul\":4826:4830   */\n      0x20\n        /* \"#utility.yul\":4818:4824   */\n      dup3\n        /* \"#utility.yul\":4814:4831   */\n      mul\n        /* \"#utility.yul\":4804:4812   */\n      dup4\n        /* \"#utility.yul\":4800:4832   */\n      add\n        /* \"#utility.yul\":4797:4838   */\n      gt\n        /* \"#utility.yul\":4794:4922   */\n      iszero\n      tag_164\n      jumpi\n        /* \"#utility.yul\":4841:4920   */\n      tag_165\n      tag_96\n      jump\t// in\n    tag_165:\n        /* \"#utility.yul\":4794:4922   */\n    tag_164:\n        /* \"#utility.yul\":4360:4928   */\n      swap3\n      pop\n      swap3\n      swap1\n      pop\n      jump\t// out\n        /* \"#utility.yul\":4934:5868   */\n    tag_27:\n        /* \"#utility.yul\":5056:5062   */\n      0x00\n        /* \"#utility.yul\":5064:5070   */\n      dup1\n        /* \"#utility.yul\":5072:5078   */\n      0x00\n        /* \"#utility.yul\":5080:5086   */\n      dup1\n        /* \"#utility.yul\":5129:5131   */\n      0x40\n        /* \"#utility.yul\":5117:5126   */\n      dup6\n        /* \"#utility.yul\":5108:5115   */\n      dup8\n        /* \"#utility.yul\":5104:5127   */\n      sub\n        /* \"#utility.yul\":5100:5132   */\n      slt\n        /* \"#utility.yul\":5097:5216   */\n      iszero\n      tag_167\n      jumpi\n        /* \"#utility.yul\":5135:5214   */\n      tag_168\n      tag_84\n      jump\t// in\n    tag_168:\n        /* \"#utility.yul\":5097:5216   */\n    tag_167:\n        /* \"#utility.yul\":5283:5284   */\n      0x00\n        /* \"#utility.yul\":5272:5281   */\n      dup6\n        /* \"#utility.yul\":5268:5285   */\n      add\n        /* \"#utility.yul\":5255:5286   */\n      calldataload\n        /* \"#utility.yul\":5313:5331   */\n      0xffffffffffffffff\n        /* \"#utility.yul\":5305:5311   */\n      dup2\n        /* \"#utility.yul\":5302:5332   */\n      gt\n        /* \"#utility.yul\":5299:5416   */\n      iszero\n      tag_169\n      jumpi\n        /* \"#utility.yul\":5335:5414   */\n      tag_170\n      tag_85\n      jump\t// in\n    tag_170:\n        /* \"#utility.yul\":5299:5416   */\n    tag_169:\n        /* \"#utility.yul\":5448:5528   */\n      tag_171\n        /* \"#utility.yul\":5520:5527   */\n      dup8\n        /* \"#utility.yul\":5511:5517   */\n      dup3\n        /* \"#utility.yul\":5500:5509   */\n      dup9\n        /* \"#utility.yul\":5496:5518   */\n      add\n        /* \"#utility.yul\":5448:5528   */\n      tag_97\n      jump\t// in\n    tag_171:\n        /* \"#utility.yul\":5430:5528   */\n      swap5\n      pop\n      swap5\n      pop\n        /* \"#utility.yul\":5226:5538   */\n      pop\n        /* \"#utility.yul\":5605:5607   */\n      0x20\n        /* \"#utility.yul\":5594:5603   */\n      dup6\n        /* \"#utility.yul\":5590:5608   */\n      add\n        /* \"#utility.yul\":5577:5609   */\n      calldataload\n        /* \"#utility.yul\":5636:5654   */\n      0xffffffffffffffff\n        /* \"#utility.yul\":5628:5634   */\n      dup2\n        /* \"#utility.yul\":5625:5655   */\n      gt\n        /* \"#utility.yul\":5622:5739   */\n      iszero\n      tag_172\n      jumpi\n        /* \"#utility.yul\":5658:5737   */\n      tag_173\n      tag_85\n      jump\t// in\n    tag_173:\n        /* \"#utility.yul\":5622:5739   */\n    tag_172:\n        /* \"#utility.yul\":5771:5851   */\n      tag_174\n        /* \"#utility.yul\":5843:5850   */\n      dup8\n        /* \"#utility.yul\":5834:5840   */\n      dup3\n        /* \"#utility.yul\":5823:5832   */\n      dup9\n        /* \"#utility.yul\":5819:5841   */\n      add\n        /* \"#utility.yul\":5771:5851   */\n      tag_98\n      jump\t// in\n    tag_174:\n        /* \"#utility.yul\":5753:5851   */\n      swap3\n      pop\n      swap3\n      pop\n        /* \"#utility.yul\":5548:5861   */\n      pop\n        /* \"#utility.yul\":4934:5868   */\n      swap3\n      swap6\n      swap2\n      swap5\n      pop\n      swap3\n      pop\n      jump\t// out\n        /* \"#utility.yul\":5874:5996   */\n    tag_99:\n        /* \"#utility.yul\":5947:5971   */\n      tag_176\n        /* \"#utility.yul\":5965:5970   */\n      dup2\n        /* \"#utility.yul\":5947:5971   */\n      tag_90\n      jump\t// in\n    tag_176:\n        /* \"#utility.yul\":5940:5945   */\n      dup2\n        /* \"#utility.yul\":5937:5972   */\n      eq\n        /* \"#utility.yul\":5927:5990   */\n      tag_177\n      jumpi\n        /* \"#utility.yul\":5986:5987   */\n      0x00\n        /* \"#utility.yul\":5983:5984   */\n      dup1\n        /* \"#utility.yul\":5976:5988   */\n      revert\n        /* \"#utility.yul\":5927:5990   */\n    tag_177:\n        /* \"#utility.yul\":5874:5996   */\n      pop\n      jump\t// out\n        /* \"#utility.yul\":6002:6141   */\n    tag_100:\n        /* \"#utility.yul\":6048:6053   */\n      0x00\n        /* \"#utility.yul\":6086:6092   */\n      dup2\n        /* \"#utility.yul\":6073:6093   */\n      calldataload\n        /* \"#utility.yul\":6064:6093   */\n      swap1\n      pop\n        /* \"#utility.yul\":6102:6135   */\n      tag_179\n        /* \"#utility.yul\":6129:6134   */\n      dup2\n        /* \"#utility.yul\":6102:6135   */\n      tag_99\n      jump\t// in\n    tag_179:\n        /* \"#utility.yul\":6002:6141   */\n      swap3\n      swap2\n      pop\n      pop\n      jump\t// out\n        /* \"#utility.yul\":6147:6621   */\n    tag_38:\n        /* \"#utility.yul\":6215:6221   */\n      0x00\n        /* \"#utility.yul\":6223:6229   */\n      dup1\n        /* \"#utility.yul\":6272:6274   */\n      0x40\n        /* \"#utility.yul\":6260:6269   */\n      dup4\n        /* \"#utility.yul\":6251:6258   */\n      dup6\n        /* \"#utility.yul\":6247:6270   */\n      sub\n        /* \"#utility.yul\":6243:6275   */\n      slt\n        /* \"#utility.yul\":6240:6359   */\n      iszero\n      tag_181\n      jumpi\n        /* \"#utility.yul\":6278:6357   */\n      tag_182\n      tag_84\n      jump\t// in\n    tag_182:\n        /* \"#utility.yul\":6240:6359   */\n    tag_181:\n        /* \"#utility.yul\":6398:6399   */\n      0x00\n        /* \"#utility.yul\":6423:6476   */\n      tag_183\n        /* \"#utility.yul\":6468:6475   */\n      dup6\n        /* \"#utility.yul\":6459:6465   */\n      dup3\n        /* \"#utility.yul\":6448:6457   */\n      dup7\n        /* \"#utility.yul\":6444:6466   */\n      add\n        /* \"#utility.yul\":6423:6476   */\n      tag_89\n      jump\t// in\n    tag_183:\n        /* \"#utility.yul\":6413:6476   */\n      swap3\n      pop\n        /* \"#utility.yul\":6369:6486   */\n      pop\n        /* \"#utility.yul\":6525:6527   */\n      0x20\n        /* \"#utility.yul\":6551:6604   */\n      tag_184\n        /* \"#utility.yul\":6596:6603   */\n      dup6\n        /* \"#utility.yul\":6587:6593   */\n      dup3\n        /* \"#utility.yul\":6576:6585   */\n      dup7\n        /* \"#utility.yul\":6572:6594   */\n      add\n        /* \"#utility.yul\":6551:6604   */\n      tag_100\n      jump\t// in\n    tag_184:\n        /* \"#utility.yul\":6541:6604   */\n      swap2\n      pop\n        /* \"#utility.yul\":6496:6614   */\n      pop\n        /* \"#utility.yul\":6147:6621   */\n      swap3\n      pop\n      swap3\n      swap1\n      pop\n      jump\t// out\n        /* \"#utility.yul\":6627:6717   */\n    tag_101:\n        /* \"#utility.yul\":6661:6668   */\n      0x00\n        /* \"#utility.yul\":6704:6709   */\n      dup2\n        /* \"#utility.yul\":6697:6710   */\n      iszero\n        /* \"#utility.yul\":6690:6711   */\n      iszero\n        /* \"#utility.yul\":6679:6711   */\n      swap1\n      pop\n        /* \"#utility.yul\":6627:6717   */\n      swap2\n      swap1\n      pop\n      jump\t// out\n        /* \"#utility.yul\":6723:6832   */\n    tag_102:\n        /* \"#utility.yul\":6804:6825   */\n      tag_187\n        /* \"#utility.yul\":6819:6824   */\n      dup2\n        /* \"#utility.yul\":6804:6825   */\n      tag_101\n      jump\t// in\n    tag_187:\n        /* \"#utility.yul\":6799:6802   */\n      dup3\n        /* \"#utility.yul\":6792:6826   */\n      mstore\n        /* \"#utility.yul\":6723:6832   */\n      pop\n      pop\n      jump\t// out\n        /* \"#utility.yul\":6838:7048   */\n    tag_41:\n        /* \"#utility.yul\":6925:6929   */\n      0x00\n        /* \"#utility.yul\":6963:6965   */\n      0x20\n        /* \"#utility.yul\":6952:6961   */\n      dup3\n        /* \"#utility.yul\":6948:6966   */\n      add\n        /* \"#utility.yul\":6940:6966   */\n      swap1\n      pop\n        /* \"#utility.yul\":6976:7041   */\n      tag_189\n        /* \"#utility.yul\":7038:7039   */\n      0x00\n        /* \"#utility.yul\":7027:7036   */\n      dup4\n        /* \"#utility.yul\":7023:7040   */\n      add\n        /* \"#utility.yul\":7014:7020   */\n      dup5\n        /* \"#utility.yul\":6976:7041   */\n      tag_102\n      jump\t// in\n    tag_189:\n        /* \"#utility.yul\":6838:7048   */\n      swap3\n      swap2\n      pop\n      pop\n      jump\t// out\n        /* \"#utility.yul\":7054:7234   */\n    tag_103:\n        /* \"#utility.yul\":7102:7179   */\n      0x4e487b7100000000000000000000000000000000000000000000000000000000\n        /* \"#utility.yul\":7099:7100   */\n      0x00\n        /* \"#utility.yul\":7092:7180   */\n      mstore\n        /* \"#utility.yul\":7199:7203   */\n      0x22\n        /* \"#utility.yul\":7196:7197   */\n      0x04\n        /* \"#utility.yul\":7189:7204   */\n      mstore\n        /* \"#utility.yul\":7223:7227   */\n      0x24\n        /* \"#utility.yul\":7220:7221   */\n      0x00\n        /* \"#utility.yul\":7213:7228   */\n      revert\n        /* \"#utility.yul\":7240:7560   */\n    tag_43:\n        /* \"#utility.yul\":7284:7290   */\n      0x00\n        /* \"#utility.yul\":7321:7322   */\n      0x02\n        /* \"#utility.yul\":7315:7319   */\n      dup3\n        /* \"#utility.yul\":7311:7323   */\n      div\n        /* \"#utility.yul\":7301:7323   */\n      swap1\n      pop\n        /* \"#utility.yul\":7368:7369   */\n      0x01\n        /* \"#utility.yul\":7362:7366   */\n      dup3\n        /* \"#utility.yul\":7358:7370   */\n      and\n        /* \"#utility.yul\":7389:7407   */\n      dup1\n        /* \"#utility.yul\":7379:7460   */\n      tag_192\n      jumpi\n        /* \"#utility.yul\":7445:7449   */\n      0x7f\n        /* \"#utility.yul\":7437:7443   */\n      dup3\n        /* \"#utility.yul\":7433:7450   */\n      and\n        /* \"#utility.yul\":7423:7450   */\n      swap2\n      pop\n        /* \"#utility.yul\":7379:7460   */\n    tag_192:\n        /* \"#utility.yul\":7507:7509   */\n      0x20\n        /* \"#utility.yul\":7499:7505   */\n      dup3\n        /* \"#utility.yul\":7496:7510   */\n      lt\n        /* \"#utility.yul\":7476:7494   */\n      dup2\n        /* \"#utility.yul\":7473:7511   */\n      sub\n        /* \"#utility.yul\":7470:7554   */\n      tag_193\n      jumpi\n        /* \"#utility.yul\":7526:7544   */\n      tag_194\n      tag_103\n      jump\t// in\n    tag_194:\n        /* \"#utility.yul\":7470:7554   */\n    tag_193:\n        /* \"#utility.yul\":7291:7560   */\n      pop\n        /* \"#utility.yul\":7240:7560   */\n      swap2\n      swap1\n      pop\n      jump\t// out\n        /* \"#utility.yul\":7566:7804   */\n    tag_104:\n        /* \"#utility.yul\":7706:7740   */\n      0x4164647265737320617272617920616e6420616d6f756e747320617272617920\n        /* \"#utility.yul\":7702:7703   */\n      0x00\n        /* \"#utility.yul\":7694:7700   */\n      dup3\n        /* \"#utility.yul\":7690:7704   */\n      add\n        /* \"#utility.yul\":7683:7741   */\n      mstore\n        /* \"#utility.yul\":7775:7796   */\n      0x6c656e677468206d7573742062652073616d6500000000000000000000000000\n        /* \"#utility.yul\":7770:7772   */\n      0x20\n        /* \"#utility.yul\":7762:7768   */\n      dup3\n        /* \"#utility.yul\":7758:7773   */\n      add\n        /* \"#utility.yul\":7751:7797   */\n      mstore\n        /* \"#utility.yul\":7566:7804   */\n      pop\n      jump\t// out\n        /* \"#utility.yul\":7810:8176   */\n    tag_105:\n        /* \"#utility.yul\":7952:7955   */\n      0x00\n        /* \"#utility.yul\":7973:8040   */\n      tag_197\n        /* \"#utility.yul\":8037:8039   */\n      0x33\n        /* \"#utility.yul\":8032:8035   */\n      dup4\n        /* \"#utility.yul\":7973:8040   */\n      tag_79\n      jump\t// in\n    tag_197:\n        /* \"#utility.yul\":7966:8040   */\n      swap2\n      pop\n        /* \"#utility.yul\":8049:8142   */\n      tag_198\n        /* \"#utility.yul\":8138:8141   */\n      dup3\n        /* \"#utility.yul\":8049:8142   */\n      tag_104\n      jump\t// in\n    tag_198:\n        /* \"#utility.yul\":8167:8169   */\n      0x40\n        /* \"#utility.yul\":8162:8165   */\n      dup3\n        /* \"#utility.yul\":8158:8170   */\n      add\n        /* \"#utility.yul\":8151:8170   */\n      swap1\n      pop\n        /* \"#utility.yul\":7810:8176   */\n      swap2\n      swap1\n      pop\n      jump\t// out\n        /* \"#utility.yul\":8182:8601   */\n    tag_51:\n        /* \"#utility.yul\":8348:8352   */\n      0x00\n        /* \"#utility.yul\":8386:8388   */\n      0x20\n        /* \"#utility.yul\":8375:8384   */\n      dup3\n        /* \"#utility.yul\":8371:8389   */\n      add\n        /* \"#utility.yul\":8363:8389   */\n      swap1\n      pop\n        /* \"#utility.yul\":8435:8444   */\n      dup2\n        /* \"#utility.yul\":8429:8433   */\n      dup2\n        /* \"#utility.yul\":8425:8445   */\n      sub\n        /* \"#utility.yul\":8421:8422   */\n      0x00\n        /* \"#utility.yul\":8410:8419   */\n      dup4\n        /* \"#utility.yul\":8406:8423   */\n      add\n        /* \"#utility.yul\":8399:8446   */\n      mstore\n        /* \"#utility.yul\":8463:8594   */\n      tag_200\n        /* \"#utility.yul\":8589:8593   */\n      dup2\n        /* \"#utility.yul\":8463:8594   */\n      tag_105\n      jump\t// in\n    tag_200:\n        /* \"#utility.yul\":8455:8594   */\n      swap1\n      pop\n        /* \"#utility.yul\":8182:8601   */\n      swap2\n      swap1\n      pop\n      jump\t// out\n        /* \"#utility.yul\":8607:8787   */\n    tag_58:\n        /* \"#utility.yul\":8655:8732   */\n      0x4e487b7100000000000000000000000000000000000000000000000000000000\n        /* \"#utility.yul\":8652:8653   */\n      0x00\n        /* \"#utility.yul\":8645:8733   */\n      mstore\n        /* \"#utility.yul\":8752:8756   */\n      0x32\n        /* \"#utility.yul\":8749:8750   */\n      0x04\n        /* \"#utility.yul\":8742:8757   */\n      mstore\n        /* \"#utility.yul\":8776:8780   */\n      0x24\n        /* \"#utility.yul\":8773:8774   */\n      0x00\n        /* \"#utility.yul\":8766:8781   */\n      revert\n        /* \"#utility.yul\":8793:8973   */\n    tag_106:\n        /* \"#utility.yul\":8841:8918   */\n      0x4e487b7100000000000000000000000000000000000000000000000000000000\n        /* \"#utility.yul\":8838:8839   */\n      0x00\n        /* \"#utility.yul\":8831:8919   */\n      mstore\n        /* \"#utility.yul\":8938:8942   */\n      0x11\n        /* \"#utility.yul\":8935:8936   */\n      0x04\n        /* \"#utility.yul\":8928:8943   */\n      mstore\n        /* \"#utility.yul\":8962:8966   */\n      0x24\n        /* \"#utility.yul\":8959:8960   */\n      0x00\n        /* \"#utility.yul\":8952:8967   */\n      revert\n        /* \"#utility.yul\":8979:9212   */\n    tag_63:\n        /* \"#utility.yul\":9018:9021   */\n      0x00\n        /* \"#utility.yul\":9041:9065   */\n      tag_204\n        /* \"#utility.yul\":9059:9064   */\n      dup3\n        /* \"#utility.yul\":9041:9065   */\n      tag_90\n      jump\t// in\n    tag_204:\n        /* \"#utility.yul\":9032:9065   */\n      swap2\n      pop\n        /* \"#utility.yul\":9087:9153   */\n      0xffffffffffffffffffffffffffffffffffffffffffffffffffffffffffffffff\n        /* \"#utility.yul\":9080:9085   */\n      dup3\n        /* \"#utility.yul\":9077:9154   */\n      sub\n        /* \"#utility.yul\":9074:9177   */\n      tag_205\n      jumpi\n        /* \"#utility.yul\":9157:9175   */\n      tag_206\n      tag_106\n      jump\t// in\n    tag_206:\n        /* \"#utility.yul\":9074:9177   */\n    tag_205:\n        /* \"#utility.yul\":9204:9205   */\n      0x01\n        /* \"#utility.yul\":9197:9202   */\n      dup3\n        /* \"#utility.yul\":9193:9206   */\n      add\n        /* \"#utility.yul\":9186:9206   */\n      swap1\n      pop\n        /* \"#utility.yul\":8979:9212   */\n      swap2\n      swap1\n      pop\n      jump\t// out\n        /* \"#utility.yul\":9218:9388   */\n    tag_107:\n        /* \"#utility.yul\":9358:9380   */\n      0x496e73756666696369656e742062616c616e6365000000000000000000000000\n        /* \"#utility.yul\":9354:9355   */\n      0x00\n        /* \"#utility.yul\":9346:9352   */\n      dup3\n        /* \"#utility.yul\":9342:9356   */\n      add\n        /* \"#utility.yul\":9335:9381   */\n      mstore\n        /* \"#utility.yul\":9218:9388   */\n      pop\n      jump\t// out\n        /* \"#utility.yul\":9394:9760   */\n    tag_108:\n        /* \"#utility.yul\":9536:9539   */\n      0x00\n        /* \"#utility.yul\":9557:9624   */\n      tag_209\n        /* \"#utility.yul\":9621:9623   */\n      0x14\n        /* \"#utility.yul\":9616:9619   */\n      dup4\n        /* \"#utility.yul\":9557:9624   */\n      tag_79\n      jump\t// in\n    tag_209:\n        /* \"#utility.yul\":9550:9624   */\n      swap2\n      pop\n        /* \"#utility.yul\":9633:9726   */\n      tag_210\n        /* \"#utility.yul\":9722:9725   */\n      dup3\n        /* \"#utility.yul\":9633:9726   */\n      tag_107\n      jump\t// in\n    tag_210:\n        /* \"#utility.yul\":9751:9753   */\n      0x20\n        /* \"#utility.yul\":9746:9749   */\n      dup3\n        /* \"#utility.yul\":9742:9754   */\n      add\n        /* \"#utility.yul\":9735:9754   */\n      swap1\n      pop\n        /* \"#utility.yul\":9394:9760   */\n      swap2\n      swap1\n      pop\n      jump\t// out\n        /* \"#utility.yul\":9766:10185   */\n    tag_73:\n        /* \"#utility.yul\":9932:9936   */\n      0x00\n        /* \"#utility.yul\":9970:9972   */\n      0x20\n        /* \"#utility.yul\":9959:9968   */\n      dup3\n        /* \"#utility.yul\":9955:9973   */\n      add\n        /* \"#utility.yul\":9947:9973   */\n      swap1\n      pop\n        /* \"#utility.yul\":10019:10028   */\n      dup2\n        /* \"#utility.yul\":10013:10017   */\n      dup2\n        /* \"#utility.yul\":10009:10029   */\n      sub\n        /* \"#utility.yul\":10005:10006   */\n      0x00\n        /* \"#utility.yul\":9994:10003   */\n      dup4\n        /* \"#utility.yul\":9990:10007   */\n      add\n        /* \"#utility.yul\":9983:10030   */\n      mstore\n        /* \"#utility.yul\":10047:10178   */\n      tag_212\n        /* \"#utility.yul\":10173:10177   */\n      dup2\n        /* \"#utility.yul\":10047:10178   */\n      tag_108\n      jump\t// in\n    tag_212:\n        /* \"#utility.yul\":10039:10178   */\n      swap1\n      pop\n        /* \"#utility.yul\":9766:10185   */\n      swap2\n      swap1\n      pop\n      jump\t// out\n        /* \"#utility.yul\":10191:10385   */\n    tag_75:\n        /* \"#utility.yul\":10231:10235   */\n      0x00\n        /* \"#utility.yul\":10251:10271   */\n      tag_214\n        /* \"#utility.yul\":10269:10270   */\n      dup3\n        /* \"#utility.yul\":10251:10271   */\n      tag_90\n      jump\t// in\n    tag_214:\n        /* \"#utility.yul\":10246:10271   */\n      swap2\n      pop\n        /* \"#utility.yul\":10285:10305   */\n      tag_215\n        /* \"#utility.yul\":10303:10304   */\n      dup4\n        /* \"#utility.yul\":10285:10305   */\n      tag_90\n      jump\t// in\n    tag_215:\n        /* \"#utility.yul\":10280:10305   */\n      swap3\n      pop\n        /* \"#utility.yul\":10329:10330   */\n      dup3\n        /* \"#utility.yul\":10326:10327   */\n      dup3\n        /* \"#utility.yul\":10322:10331   */\n      sub\n        /* \"#utility.yul\":10314:10331   */\n      swap1\n      pop\n        /* \"#utility.yul\":10353:10354   */\n      dup2\n        /* \"#utility.yul\":10347:10351   */\n      dup2\n        /* \"#utility.yul\":10344:10355   */\n      gt\n        /* \"#utility.yul\":10341:10378   */\n      iszero\n      tag_216\n      jumpi\n        /* \"#utility.yul\":10358:10376   */\n      tag_217\n      tag_106\n      jump\t// in\n    tag_217:\n        /* \"#utility.yul\":10341:10378   */\n    tag_216:\n        /* \"#utility.yul\":10191:10385   */\n      swap3\n      swap2\n      pop\n      pop\n      jump\t// out\n        /* \"#utility.yul\":10391:10582   */\n    tag_77:\n        /* \"#utility.yul\":10431:10434   */\n      0x00\n        /* \"#utility.yul\":10450:10470   */\n      tag_219\n        /* \"#utility.yul\":10468:10469   */\n      dup3\n        /* \"#utility.yul\":10450:10470   */\n      tag_90\n      jump\t// in\n    tag_219:\n        /* \"#utility.yul\":10445:10470   */\n      swap2\n      pop\n        /* \"#utility.yul\":10484:10504   */\n      tag_220\n        /* \"#utility.yul\":10502:10503   */\n      dup4\n        /* \"#utility.yul\":10484:10504   */\n      tag_90\n      jump\t// in\n    tag_220:\n        /* \"#utility.yul\":10479:10504   */\n      swap3\n      pop\n        /* \"#utility.yul\":10527:10528   */\n      dup3\n        /* \"#utility.yul\":10524:10525   */\n      dup3\n        /* \"#utility.yul\":10520:10529   */\n      add\n        /* \"#utility.yul\":10513:10529   */\n      swap1\n      pop\n        /* \"#utility.yul\":10548:10551   */\n      dup1\n        /* \"#utility.yul\":10545:10546   */\n      dup3\n        /* \"#utility.yul\":10542:10552   */\n      gt\n        /* \"#utility.yul\":10539:10575   */\n      iszero\n      tag_221\n      jumpi\n        /* \"#utility.yul\":10555:10573   */\n      tag_222\n      tag_106\n      jump\t// in\n    tag_222:\n        /* \"#utility.yul\":10539:10575   */\n    tag_221:\n        /* \"#utility.yul\":10391:10582   */\n      swap3\n      swap2\n      pop\n      pop\n      jump\t// out\n\n    auxdata: 0xa264697066735822122066d152b212f408f5fb219e506580a9e16ab6083dbe59bbbaf2d8075cc100e20464736f6c63430008120033\n}\n",
				"bytecode": {
					"linkReferences": {},
					"object": "60806040523480156200001157600080fd5b50604051620011f2380380620011f28339818101604052810190620000379190620002cf565b8360019081620000489190620005c0565b5082600290816200005a9190620005c0565b5081600360006101000a81548160ff021916908360ff160217905550806000803373ffffffffffffffffffffffffffffffffffffffff1673ffffffffffffffffffffffffffffffffffffffff1681526020019081526020016000208190555050505050620006a7565b6000604051905090565b600080fd5b600080fd5b600080fd5b600080fd5b6000601f19601f8301169050919050565b7f4e487b7100000000000000000000000000000000000000000000000000000000600052604160045260246000fd5b6200012c82620000e1565b810181811067ffffffffffffffff821117156200014e576200014d620000f2565b5b80604052505050565b600062000163620000c3565b905062000171828262000121565b919050565b600067ffffffffffffffff821115620001945762000193620000f2565b5b6200019f82620000e1565b9050602081019050919050565b60005b83811015620001cc578082015181840152602081019050620001af565b60008484015250505050565b6000620001ef620001e98462000176565b62000157565b9050828152602081018484840111156200020e576200020d620000dc565b5b6200021b848285620001ac565b509392505050565b600082601f8301126200023b576200023a620000d7565b5b81516200024d848260208601620001d8565b91505092915050565b600060ff82169050919050565b6200026e8162000256565b81146200027a57600080fd5b50565b6000815190506200028e8162000263565b92915050565b6000819050919050565b620002a98162000294565b8114620002b557600080fd5b50565b600081519050620002c9816200029e565b92915050565b60008060008060808587031215620002ec57620002eb620000cd565b5b600085015167ffffffffffffffff8111156200030d576200030c620000d2565b5b6200031b8782880162000223565b945050602085015167ffffffffffffffff8111156200033f576200033e620000d2565b5b6200034d8782880162000223565b935050604062000360878288016200027d565b92505060606200037387828801620002b8565b91505092959194509250565b600081519050919050565b7f4e487b7100000000000000000000000000000000000000000000000000000000600052602260045260246000fd5b60006002820490506001821680620003d257607f821691505b602082108103620003e857620003e76200038a565b5b50919050565b60008190508160005260206000209050919050565b60006020601f8301049050919050565b600082821b905092915050565b600060088302620004527fffffffffffffffffffffffffffffffffffffffffffffffffffffffffffffffff8262000413565b6200045e868362000413565b95508019841693508086168417925050509392505050565b6000819050919050565b6000620004a16200049b620004958462000294565b62000476565b62000294565b9050919050565b6000819050919050565b620004bd8362000480565b620004d5620004cc82620004a8565b84845462000420565b825550505050565b600090565b620004ec620004dd565b620004f9818484620004b2565b505050565b5b81811015620005215762000515600082620004e2565b600181019050620004ff565b5050565b601f82111562000570576200053a81620003ee565b620005458462000403565b8101602085101562000555578190505b6200056d620005648562000403565b830182620004fe565b50505b505050565b600082821c905092915050565b6000620005956000198460080262000575565b1980831691505092915050565b6000620005b0838362000582565b9150826002028217905092915050565b620005cb826200037f565b67ffffffffffffffff811115620005e757620005e6620000f2565b5b620005f38254620003b9565b6200060082828562000525565b600060209050601f83116001811462000638576000841562000623578287015190505b6200062f8582620005a2565b8655506200069f565b601f1984166200064886620003ee565b60005b8281101562000672578489015182556001820191506020850194506020810190506200064b565b868310156200069257848901516200068e601f89168262000582565b8355505b6001600288020188555050505b505050505050565b610b3b80620006b76000396000f3fe608060405234801561001057600080fd5b506004361061007d5760003560e01c80633b3e672f1161005b5780633b3e672f146100ee57806370a082311461010a57806395d89b411461013a578063a9059cbb146101585761007d565b806306fdde031461008257806327e235e3146100a0578063313ce567146100d0575b600080fd5b61008a610188565b6040516100979190610599565b60405180910390f35b6100ba60048036038101906100b59190610623565b610216565b6040516100c79190610669565b60405180910390f35b6100d861022e565b6040516100e591906106a0565b60405180910390f35b61010860048036038101906101039190610776565b610241565b005b610124600480360381019061011f9190610623565b6102fc565b6040516101319190610669565b60405180910390f35b610142610344565b60405161014f9190610599565b60405180910390f35b610172600480360381019061016d9190610823565b6103d2565b60405161017f919061087e565b60405180910390f35b60018054610195906108c8565b80601f01602080910402602001604051908101604052809291908181526020018280546101c1906108c8565b801561020e5780601f106101e35761010080835404028352916020019161020e565b820191906000526020600020905b8154815290600101906020018083116101f157829003601f168201915b505050505081565b60006020528060005260406000206000915090505481565b600360009054906101000a900460ff1681565b818190508484905014610289576040517f08c379a00000000000000000000000000000000000000000000000000000000081526004016102809061096b565b60405180910390fd5b60005b848490508110156102f5576102e18585838181106102ad576102ac61098b565b5b90506020020160208101906102c29190610623565b8484848181106102d5576102d461098b565b5b905060200201356103d2565b5080806102ed906109e9565b91505061028c565b5050505050565b60008060008373ffffffffffffffffffffffffffffffffffffffff1673ffffffffffffffffffffffffffffffffffffffff168152602001908152602001600020549050919050565b60028054610351906108c8565b80601f016020809104026020016040519081016040528092919081815260200182805461037d906108c8565b80156103ca5780601f1061039f576101008083540402835291602001916103ca565b820191906000526020600020905b8154815290600101906020018083116103ad57829003601f168201915b505050505081565b6000816000803373ffffffffffffffffffffffffffffffffffffffff1673ffffffffffffffffffffffffffffffffffffffff168152602001908152602001600020541015610455576040517f08c379a000000000000000000000000000000000000000000000000000000000815260040161044c90610a7d565b60405180910390fd5b816000803373ffffffffffffffffffffffffffffffffffffffff1673ffffffffffffffffffffffffffffffffffffffff16815260200190815260200160002060008282546104a39190610a9d565b92505081905550816000808573ffffffffffffffffffffffffffffffffffffffff1673ffffffffffffffffffffffffffffffffffffffff16815260200190815260200160002060008282546104f89190610ad1565b925050819055506001905092915050565b600081519050919050565b600082825260208201905092915050565b60005b83811015610543578082015181840152602081019050610528565b60008484015250505050565b6000601f19601f8301169050919050565b600061056b82610509565b6105758185610514565b9350610585818560208601610525565b61058e8161054f565b840191505092915050565b600060208201905081810360008301526105b38184610560565b905092915050565b600080fd5b600080fd5b600073ffffffffffffffffffffffffffffffffffffffff82169050919050565b60006105f0826105c5565b9050919050565b610600816105e5565b811461060b57600080fd5b50565b60008135905061061d816105f7565b92915050565b600060208284031215610639576106386105bb565b5b60006106478482850161060e565b91505092915050565b6000819050919050565b61066381610650565b82525050565b600060208201905061067e600083018461065a565b92915050565b600060ff82169050919050565b61069a81610684565b82525050565b60006020820190506106b56000830184610691565b92915050565b600080fd5b600080fd5b600080fd5b60008083601f8401126106e0576106df6106bb565b5b8235905067ffffffffffffffff8111156106fd576106fc6106c0565b5b602083019150836020820283011115610719576107186106c5565b5b9250929050565b60008083601f840112610736576107356106bb565b5b8235905067ffffffffffffffff811115610753576107526106c0565b5b60208301915083602082028301111561076f5761076e6106c5565b5b9250929050565b600080600080604085870312156107905761078f6105bb565b5b600085013567ffffffffffffffff8111156107ae576107ad6105c0565b5b6107ba878288016106ca565b9450945050602085013567ffffffffffffffff8111156107dd576107dc6105c0565b5b6107e987828801610720565b925092505092959194509250565b61080081610650565b811461080b57600080fd5b50565b60008135905061081d816107f7565b92915050565b6000806040838503121561083a576108396105bb565b5b60006108488582860161060e565b92505060206108598582860161080e565b9150509250929050565b60008115159050919050565b61087881610863565b82525050565b6000602082019050610893600083018461086f565b92915050565b7f4e487b7100000000000000000000000000000000000000000000000000000000600052602260045260246000fd5b600060028204905060018216806108e057607f821691505b6020821081036108f3576108f2610899565b5b50919050565b7f4164647265737320617272617920616e6420616d6f756e74732061727261792060008201527f6c656e677468206d7573742062652073616d6500000000000000000000000000602082015250565b6000610955603383610514565b9150610960826108f9565b604082019050919050565b6000602082019050818103600083015261098481610948565b9050919050565b7f4e487b7100000000000000000000000000000000000000000000000000000000600052603260045260246000fd5b7f4e487b7100000000000000000000000000000000000000000000000000000000600052601160045260246000fd5b60006109f482610650565b91507fffffffffffffffffffffffffffffffffffffffffffffffffffffffffffffffff8203610a2657610a256109ba565b5b600182019050919050565b7f496e73756666696369656e742062616c616e6365000000000000000000000000600082015250565b6000610a67601483610514565b9150610a7282610a31565b602082019050919050565b60006020820190508181036000830152610a9681610a5a565b9050919050565b6000610aa882610650565b9150610ab383610650565b9250828203905081811115610acb57610aca6109ba565b5b92915050565b6000610adc82610650565b9150610ae783610650565b9250828201905080821115610aff57610afe6109ba565b5b9291505056fea264697066735822122066d152b212f408f5fb219e506580a9e16ab6083dbe59bbbaf2d8075cc100e20464736f6c63430008120033",
					"opcodes": "PUSH1 0x80 PUSH1 0x40 MSTORE CALLVALUE DUP1 ISZERO PUSH3 0x11 JUMPI PUSH1 0x0 DUP1 REVERT JUMPDEST POP PUSH1 0x40 MLOAD PUSH3 0x11F2 CODESIZE SUB DUP1 PUSH3 0x11F2 DUP4 CODECOPY DUP2 DUP2 ADD PUSH1 0x40 MSTORE DUP2 ADD SWAP1 PUSH3 0x37 SWAP2 SWAP1 PUSH3 0x2CF JUMP JUMPDEST DUP4 PUSH1 0x1 SWAP1 DUP2 PUSH3 0x48 SWAP2 SWAP1 PUSH3 0x5C0 JUMP JUMPDEST POP DUP3 PUSH1 0x2 SWAP1 DUP2 PUSH3 0x5A SWAP2 SWAP1 PUSH3 0x5C0 JUMP JUMPDEST POP DUP2 PUSH1 0x3 PUSH1 0x0 PUSH2 0x100 EXP DUP2 SLOAD DUP2 PUSH1 0xFF MUL NOT AND SWAP1 DUP4 PUSH1 0xFF AND MUL OR SWAP1 SSTORE POP DUP1 PUSH1 0x0 DUP1 CALLER PUSH20 0xFFFFFFFFFFFFFFFFFFFFFFFFFFFFFFFFFFFFFFFF AND PUSH20 0xFFFFFFFFFFFFFFFFFFFFFFFFFFFFFFFFFFFFFFFF AND DUP2 MSTORE PUSH1 0x20 ADD SWAP1 DUP2 MSTORE PUSH1 0x20 ADD PUSH1 0x0 KECCAK256 DUP2 SWAP1 SSTORE POP POP POP POP POP PUSH3 0x6A7 JUMP JUMPDEST PUSH1 0x0 PUSH1 0x40 MLOAD SWAP1 POP SWAP1 JUMP JUMPDEST PUSH1 0x0 DUP1 REVERT JUMPDEST PUSH1 0x0 DUP1 REVERT JUMPDEST PUSH1 0x0 DUP1 REVERT JUMPDEST PUSH1 0x0 DUP1 REVERT JUMPDEST PUSH1 0x0 PUSH1 0x1F NOT PUSH1 0x1F DUP4 ADD AND SWAP1 POP SWAP2 SWAP1 POP JUMP JUMPDEST PUSH32 0x4E487B7100000000000000000000000000000000000000000000000000000000 PUSH1 0x0 MSTORE PUSH1 0x41 PUSH1 0x4 MSTORE PUSH1 0x24 PUSH1 0x0 REVERT JUMPDEST PUSH3 0x12C DUP3 PUSH3 0xE1 JUMP JUMPDEST DUP2 ADD DUP2 DUP2 LT PUSH8 0xFFFFFFFFFFFFFFFF DUP3 GT OR ISZERO PUSH3 0x14E JUMPI PUSH3 0x14D PUSH3 0xF2 JUMP JUMPDEST JUMPDEST DUP1 PUSH1 0x40 MSTORE POP POP POP JUMP JUMPDEST PUSH1 0x0 PUSH3 0x163 PUSH3 0xC3 JUMP JUMPDEST SWAP1 POP PUSH3 0x171 DUP3 DUP3 PUSH3 0x121 JUMP JUMPDEST SWAP2 SWAP1 POP JUMP JUMPDEST PUSH1 0x0 PUSH8 0xFFFFFFFFFFFFFFFF DUP3 GT ISZERO PUSH3 0x194 JUMPI PUSH3 0x193 PUSH3 0xF2 JUMP JUMPDEST JUMPDEST PUSH3 0x19F DUP3 PUSH3 0xE1 JUMP JUMPDEST SWAP1 POP PUSH1 0x20 DUP2 ADD SWAP1 POP SWAP2 SWAP1 POP JUMP JUMPDEST PUSH1 0x0 JUMPDEST DUP4 DUP2 LT ISZERO PUSH3 0x1CC JUMPI DUP1 DUP3 ADD MLOAD DUP2 DUP5 ADD MSTORE PUSH1 0x20 DUP2 ADD SWAP1 POP PUSH3 0x1AF JUMP JUMPDEST PUSH1 0x0 DUP5 DUP5 ADD MSTORE POP POP POP POP JUMP JUMPDEST PUSH1 0x0 PUSH3 0x1EF PUSH3 0x1E9 DUP5 PUSH3 0x176 JUMP JUMPDEST PUSH3 0x157 JUMP JUMPDEST SWAP1 POP DUP3 DUP2 MSTORE PUSH1 0x20 DUP2 ADD DUP5 DUP5 DUP5 ADD GT ISZERO PUSH3 0x20E JUMPI PUSH3 0x20D PUSH3 0xDC JUMP JUMPDEST JUMPDEST PUSH3 0x21B DUP5 DUP3 DUP6 PUSH3 0x1AC JUMP JUMPDEST POP SWAP4 SWAP3 POP POP POP JUMP JUMPDEST PUSH1 0x0 DUP3 PUSH1 0x1F DUP4 ADD SLT PUSH3 0x23B JUMPI PUSH3 0x23A PUSH3 0xD7 JUMP JUMPDEST JUMPDEST DUP2 MLOAD PUSH3 0x24D DUP5 DUP3 PUSH1 0x20 DUP7 ADD PUSH3 0x1D8 JUMP JUMPDEST SWAP2 POP POP SWAP3 SWAP2 POP POP JUMP JUMPDEST PUSH1 0x0 PUSH1 0xFF DUP3 AND SWAP1 POP SWAP2 SWAP1 POP JUMP JUMPDEST PUSH3 0x26E DUP2 PUSH3 0x256 JUMP JUMPDEST DUP2 EQ PUSH3 0x27A JUMPI PUSH1 0x0 DUP1 REVERT JUMPDEST POP JUMP JUMPDEST PUSH1 0x0 DUP2 MLOAD SWAP1 POP PUSH3 0x28E DUP2 PUSH3 0x263 JUMP JUMPDEST SWAP3 SWAP2 POP POP JUMP JUMPDEST PUSH1 0x0 DUP2 SWAP1 POP SWAP2 SWAP1 POP JUMP JUMPDEST PUSH3 0x2A9 DUP2 PUSH3 0x294 JUMP JUMPDEST DUP2 EQ PUSH3 0x2B5 JUMPI PUSH1 0x0 DUP1 REVERT JUMPDEST POP JUMP JUMPDEST PUSH1 0x0 DUP2 MLOAD SWAP1 POP PUSH3 0x2C9 DUP2 PUSH3 0x29E JUMP JUMPDEST SWAP3 SWAP2 POP POP JUMP JUMPDEST PUSH1 0x0 DUP1 PUSH1 0x0 DUP1 PUSH1 0x80 DUP6 DUP8 SUB SLT ISZERO PUSH3 0x2EC JUMPI PUSH3 0x2EB PUSH3 0xCD JUMP JUMPDEST JUMPDEST PUSH1 0x0 DUP6 ADD MLOAD PUSH8 0xFFFFFFFFFFFFFFFF DUP2 GT ISZERO PUSH3 0x30D JUMPI PUSH3 0x30C PUSH3 0xD2 JUMP JUMPDEST JUMPDEST PUSH3 0x31B DUP8 DUP3 DUP9 ADD PUSH3 0x223 JUMP JUMPDEST SWAP5 POP POP PUSH1 0x20 DUP6 ADD MLOAD PUSH8 0xFFFFFFFFFFFFFFFF DUP2 GT ISZERO PUSH3 0x33F JUMPI PUSH3 0x33E PUSH3 0xD2 JUMP JUMPDEST JUMPDEST PUSH3 0x34D DUP8 DUP3 DUP9 ADD PUSH3 0x223 JUMP JUMPDEST SWAP4 POP POP PUSH1 0x40 PUSH3 0x360 DUP8 DUP3 DUP9 ADD PUSH3 0x27D JUMP JUMPDEST SWAP3 POP POP PUSH1 0x60 PUSH3 0x373 DUP8 DUP3 DUP9 ADD PUSH3 0x2B8 JUMP JUMPDEST SWAP2 POP POP SWAP3 SWAP6 SWAP2 SWAP5 POP SWAP3 POP JUMP JUMPDEST PUSH1 0x0 DUP2 MLOAD SWAP1 POP SWAP2 SWAP1 POP JUMP JUMPDEST PUSH32 0x4E487B7100000000000000000000000000000000000000000000000000000000 PUSH1 0x0 MSTORE PUSH1 0x22 PUSH1 0x4 MSTORE PUSH1 0x24 PUSH1 0x0 REVERT JUMPDEST PUSH1 0x0 PUSH1 0x2 DUP3 DIV SWAP1 POP PUSH1 0x1 DUP3 AND DUP1 PUSH3 0x3D2 JUMPI PUSH1 0x7F DUP3 AND SWAP2 POP JUMPDEST PUSH1 0x20 DUP3 LT DUP2 SUB PUSH3 0x3E8 JUMPI PUSH3 0x3E7 PUSH3 0x38A JUMP JUMPDEST JUMPDEST POP SWAP2 SWAP1 POP JUMP JUMPDEST PUSH1 0x0 DUP2 SWAP1 POP DUP2 PUSH1 0x0 MSTORE PUSH1 0x20 PUSH1 0x0 KECCAK256 SWAP1 POP SWAP2 SWAP1 POP JUMP JUMPDEST PUSH1 0x0 PUSH1 0x20 PUSH1 0x1F DUP4 ADD DIV SWAP1 POP SWAP2 SWAP1 POP JUMP JUMPDEST PUSH1 0x0 DUP3 DUP3 SHL SWAP1 POP SWAP3 SWAP2 POP POP JUMP JUMPDEST PUSH1 0x0 PUSH1 0x8 DUP4 MUL PUSH3 0x452 PUSH32 0xFFFFFFFFFFFFFFFFFFFFFFFFFFFFFFFFFFFFFFFFFFFFFFFFFFFFFFFFFFFFFFFF DUP3 PUSH3 0x413 JUMP JUMPDEST PUSH3 0x45E DUP7 DUP4 PUSH3 0x413 JUMP JUMPDEST SWAP6 POP DUP1 NOT DUP5 AND SWAP4 POP DUP1 DUP7 AND DUP5 OR SWAP3 POP POP POP SWAP4 SWAP3 POP POP POP JUMP JUMPDEST PUSH1 0x0 DUP2 SWAP1 POP SWAP2 SWAP1 POP JUMP JUMPDEST PUSH1 0x0 PUSH3 0x4A1 PUSH3 0x49B PUSH3 0x495 DUP5 PUSH3 0x294 JUMP JUMPDEST PUSH3 0x476 JUMP JUMPDEST PUSH3 0x294 JUMP JUMPDEST SWAP1 POP SWAP2 SWAP1 POP JUMP JUMPDEST PUSH1 0x0 DUP2 SWAP1 POP SWAP2 SWAP1 POP JUMP JUMPDEST PUSH3 0x4BD DUP4 PUSH3 0x480 JUMP JUMPDEST PUSH3 0x4D5 PUSH3 0x4CC DUP3 PUSH3 0x4A8 JUMP JUMPDEST DUP5 DUP5 SLOAD PUSH3 0x420 JUMP JUMPDEST DUP3 SSTORE POP POP POP POP JUMP JUMPDEST PUSH1 0x0 SWAP1 JUMP JUMPDEST PUSH3 0x4EC PUSH3 0x4DD JUMP JUMPDEST PUSH3 0x4F9 DUP2 DUP5 DUP5 PUSH3 0x4B2 JUMP JUMPDEST POP POP POP JUMP JUMPDEST JUMPDEST DUP2 DUP2 LT ISZERO PUSH3 0x521 JUMPI PUSH3 0x515 PUSH1 0x0 DUP3 PUSH3 0x4E2 JUMP JUMPDEST PUSH1 0x1 DUP2 ADD SWAP1 POP PUSH3 0x4FF JUMP JUMPDEST POP POP JUMP JUMPDEST PUSH1 0x1F DUP3 GT ISZERO PUSH3 0x570 JUMPI PUSH3 0x53A DUP2 PUSH3 0x3EE JUMP JUMPDEST PUSH3 0x545 DUP5 PUSH3 0x403 JUMP JUMPDEST DUP2 ADD PUSH1 0x20 DUP6 LT ISZERO PUSH3 0x555 JUMPI DUP2 SWAP1 POP JUMPDEST PUSH3 0x56D PUSH3 0x564 DUP6 PUSH3 0x403 JUMP JUMPDEST DUP4 ADD DUP3 PUSH3 0x4FE JUMP JUMPDEST POP POP JUMPDEST POP POP POP JUMP JUMPDEST PUSH1 0x0 DUP3 DUP3 SHR SWAP1 POP SWAP3 SWAP2 POP POP JUMP JUMPDEST PUSH1 0x0 PUSH3 0x595 PUSH1 0x0 NOT DUP5 PUSH1 0x8 MUL PUSH3 0x575 JUMP JUMPDEST NOT DUP1 DUP4 AND SWAP2 POP POP SWAP3 SWAP2 POP POP JUMP JUMPDEST PUSH1 0x0 PUSH3 0x5B0 DUP4 DUP4 PUSH3 0x582 JUMP JUMPDEST SWAP2 POP DUP3 PUSH1 0x2 MUL DUP3 OR SWAP1 POP SWAP3 SWAP2 POP POP JUMP JUMPDEST PUSH3 0x5CB DUP3 PUSH3 0x37F JUMP JUMPDEST PUSH8 0xFFFFFFFFFFFFFFFF DUP2 GT ISZERO PUSH3 0x5E7 JUMPI PUSH3 0x5E6 PUSH3 0xF2 JUMP JUMPDEST JUMPDEST PUSH3 0x5F3 DUP3 SLOAD PUSH3 0x3B9 JUMP JUMPDEST PUSH3 0x600 DUP3 DUP3 DUP6 PUSH3 0x525 JUMP JUMPDEST PUSH1 0x0 PUSH1 0x20 SWAP1 POP PUSH1 0x1F DUP4 GT PUSH1 0x1 DUP2 EQ PUSH3 0x638 JUMPI PUSH1 0x0 DUP5 ISZERO PUSH3 0x623 JUMPI DUP3 DUP8 ADD MLOAD SWAP1 POP JUMPDEST PUSH3 0x62F DUP6 DUP3 PUSH3 0x5A2 JUMP JUMPDEST DUP7 SSTORE POP PUSH3 0x69F JUMP JUMPDEST PUSH1 0x1F NOT DUP5 AND PUSH3 0x648 DUP7 PUSH3 0x3EE JUMP JUMPDEST PUSH1 0x0 JUMPDEST DUP3 DUP2 LT ISZERO PUSH3 0x672 JUMPI DUP5 DUP10 ADD MLOAD DUP3 SSTORE PUSH1 0x1 DUP3 ADD SWAP2 POP PUSH1 0x20 DUP6 ADD SWAP5 POP PUSH1 0x20 DUP2 ADD SWAP1 POP PUSH3 0x64B JUMP JUMPDEST DUP7 DUP4 LT ISZERO PUSH3 0x692 JUMPI DUP5 DUP10 ADD MLOAD PUSH3 0x68E PUSH1 0x1F DUP10 AND DUP3 PUSH3 0x582 JUMP JUMPDEST DUP4 SSTORE POP JUMPDEST PUSH1 0x1 PUSH1 0x2 DUP9 MUL ADD DUP9 SSTORE POP POP POP JUMPDEST POP POP POP POP POP POP JUMP JUMPDEST PUSH2 0xB3B DUP1 PUSH3 0x6B7 PUSH1 0x0 CODECOPY PUSH1 0x0 RETURN INVALID PUSH1 0x80 PUSH1 0x40 MSTORE CALLVALUE DUP1 ISZERO PUSH2 0x10 JUMPI PUSH1 0x0 DUP1 REVERT JUMPDEST POP PUSH1 0x4 CALLDATASIZE LT PUSH2 0x7D JUMPI PUSH1 0x0 CALLDATALOAD PUSH1 0xE0 SHR DUP1 PUSH4 0x3B3E672F GT PUSH2 0x5B JUMPI DUP1 PUSH4 0x3B3E672F EQ PUSH2 0xEE JUMPI DUP1 PUSH4 0x70A08231 EQ PUSH2 0x10A JUMPI DUP1 PUSH4 0x95D89B41 EQ PUSH2 0x13A JUMPI DUP1 PUSH4 0xA9059CBB EQ PUSH2 0x158 JUMPI PUSH2 0x7D JUMP JUMPDEST DUP1 PUSH4 0x6FDDE03 EQ PUSH2 0x82 JUMPI DUP1 PUSH4 0x27E235E3 EQ PUSH2 0xA0 JUMPI DUP1 PUSH4 0x313CE567 EQ PUSH2 0xD0 JUMPI JUMPDEST PUSH1 0x0 DUP1 REVERT JUMPDEST PUSH2 0x8A PUSH2 0x188 JUMP JUMPDEST PUSH1 0x40 MLOAD PUSH2 0x97 SWAP2 SWAP1 PUSH2 0x599 JUMP JUMPDEST PUSH1 0x40 MLOAD DUP1 SWAP2 SUB SWAP1 RETURN JUMPDEST PUSH2 0xBA PUSH1 0x4 DUP1 CALLDATASIZE SUB DUP2 ADD SWAP1 PUSH2 0xB5 SWAP2 SWAP1 PUSH2 0x623 JUMP JUMPDEST PUSH2 0x216 JUMP JUMPDEST PUSH1 0x40 MLOAD PUSH2 0xC7 SWAP2 SWAP1 PUSH2 0x669 JUMP JUMPDEST PUSH1 0x40 MLOAD DUP1 SWAP2 SUB SWAP1 RETURN JUMPDEST PUSH2 0xD8 PUSH2 0x22E JUMP JUMPDEST PUSH1 0x40 MLOAD PUSH2 0xE5 SWAP2 SWAP1 PUSH2 0x6A0 JUMP JUMPDEST PUSH1 0x40 MLOAD DUP1 SWAP2 SUB SWAP1 RETURN JUMPDEST PUSH2 0x108 PUSH1 0x4 DUP1 CALLDATASIZE SUB DUP2 ADD SWAP1 PUSH2 0x103 SWAP2 SWAP1 PUSH2 0x776 JUMP JUMPDEST PUSH2 0x241 JUMP JUMPDEST STOP JUMPDEST PUSH2 0x124 PUSH1 0x4 DUP1 CALLDATASIZE SUB DUP2 ADD SWAP1 PUSH2 0x11F SWAP2 SWAP1 PUSH2 0x623 JUMP JUMPDEST PUSH2 0x2FC JUMP JUMPDEST PUSH1 0x40 MLOAD PUSH2 0x131 SWAP2 SWAP1 PUSH2 0x669 JUMP JUMPDEST PUSH1 0x40 MLOAD DUP1 SWAP2 SUB SWAP1 RETURN JUMPDEST PUSH2 0x142 PUSH2 0x344 JUMP JUMPDEST PUSH1 0x40 MLOAD PUSH2 0x14F SWAP2 SWAP1 PUSH2 0x599 JUMP JUMPDEST PUSH1 0x40 MLOAD DUP1 SWAP2 SUB SWAP1 RETURN JUMPDEST PUSH2 0x172 PUSH1 0x4 DUP1 CALLDATASIZE SUB DUP2 ADD SWAP1 PUSH2 0x16D SWAP2 SWAP1 PUSH2 0x823 JUMP JUMPDEST PUSH2 0x3D2 JUMP JUMPDEST PUSH1 0x40 MLOAD PUSH2 0x17F SWAP2 SWAP1 PUSH2 0x87E JUMP JUMPDEST PUSH1 0x40 MLOAD DUP1 SWAP2 SUB SWAP1 RETURN JUMPDEST PUSH1 0x1 DUP1 SLOAD PUSH2 0x195 SWAP1 PUSH2 0x8C8 JUMP JUMPDEST DUP1 PUSH1 0x1F ADD PUSH1 0x20 DUP1 SWAP2 DIV MUL PUSH1 0x20 ADD PUSH1 0x40 MLOAD SWAP1 DUP2 ADD PUSH1 0x40 MSTORE DUP1 SWAP3 SWAP2 SWAP1 DUP2 DUP2 MSTORE PUSH1 0x20 ADD DUP3 DUP1 SLOAD PUSH2 0x1C1 SWAP1 PUSH2 0x8C8 JUMP JUMPDEST DUP1 ISZERO PUSH2 0x20E JUMPI DUP1 PUSH1 0x1F LT PUSH2 0x1E3 JUMPI PUSH2 0x100 DUP1 DUP4 SLOAD DIV MUL DUP4 MSTORE SWAP2 PUSH1 0x20 ADD SWAP2 PUSH2 0x20E JUMP JUMPDEST DUP3 ADD SWAP2 SWAP1 PUSH1 0x0 MSTORE PUSH1 0x20 PUSH1 0x0 KECCAK256 SWAP1 JUMPDEST DUP2 SLOAD DUP2 MSTORE SWAP1 PUSH1 0x1 ADD SWAP1 PUSH1 0x20 ADD DUP1 DUP4 GT PUSH2 0x1F1 JUMPI DUP3 SWAP1 SUB PUSH1 0x1F AND DUP3 ADD SWAP2 JUMPDEST POP POP POP POP POP DUP2 JUMP JUMPDEST PUSH1 0x0 PUSH1 0x20 MSTORE DUP1 PUSH1 0x0 MSTORE PUSH1 0x40 PUSH1 0x0 KECCAK256 PUSH1 0x0 SWAP2 POP SWAP1 POP SLOAD DUP2 JUMP JUMPDEST PUSH1 0x3 PUSH1 0x0 SWAP1 SLOAD SWAP1 PUSH2 0x100 EXP SWAP1 DIV PUSH1 0xFF AND DUP2 JUMP JUMPDEST DUP2 DUP2 SWAP1 POP DUP5 DUP5 SWAP1 POP EQ PUSH2 0x289 JUMPI PUSH1 0x40 MLOAD PUSH32 0x8C379A000000000000000000000000000000000000000000000000000000000 DUP2 MSTORE PUSH1 0x4 ADD PUSH2 0x280 SWAP1 PUSH2 0x96B JUMP JUMPDEST PUSH1 0x40 MLOAD DUP1 SWAP2 SUB SWAP1 REVERT JUMPDEST PUSH1 0x0 JUMPDEST DUP5 DUP5 SWAP1 POP DUP2 LT ISZERO PUSH2 0x2F5 JUMPI PUSH2 0x2E1 DUP6 DUP6 DUP4 DUP2 DUP2 LT PUSH2 0x2AD JUMPI PUSH2 0x2AC PUSH2 0x98B JUMP JUMPDEST JUMPDEST SWAP1 POP PUSH1 0x20 MUL ADD PUSH1 0x20 DUP2 ADD SWAP1 PUSH2 0x2C2 SWAP2 SWAP1 PUSH2 0x623 JUMP JUMPDEST DUP5 DUP5 DUP5 DUP2 DUP2 LT PUSH2 0x2D5 JUMPI PUSH2 0x2D4 PUSH2 0x98B JUMP JUMPDEST JUMPDEST SWAP1 POP PUSH1 0x20 MUL ADD CALLDATALOAD PUSH2 0x3D2 JUMP JUMPDEST POP DUP1 DUP1 PUSH2 0x2ED SWAP1 PUSH2 0x9E9 JUMP JUMPDEST SWAP2 POP POP PUSH2 0x28C JUMP JUMPDEST POP POP POP POP POP JUMP JUMPDEST PUSH1 0x0 DUP1 PUSH1 0x0 DUP4 PUSH20 0xFFFFFFFFFFFFFFFFFFFFFFFFFFFFFFFFFFFFFFFF AND PUSH20 0xFFFFFFFFFFFFFFFFFFFFFFFFFFFFFFFFFFFFFFFF AND DUP2 MSTORE PUSH1 0x20 ADD SWAP1 DUP2 MSTORE PUSH1 0x20 ADD PUSH1 0x0 KECCAK256 SLOAD SWAP1 POP SWAP2 SWAP1 POP JUMP JUMPDEST PUSH1 0x2 DUP1 SLOAD PUSH2 0x351 SWAP1 PUSH2 0x8C8 JUMP JUMPDEST DUP1 PUSH1 0x1F ADD PUSH1 0x20 DUP1 SWAP2 DIV MUL PUSH1 0x20 ADD PUSH1 0x40 MLOAD SWAP1 DUP2 ADD PUSH1 0x40 MSTORE DUP1 SWAP3 SWAP2 SWAP1 DUP2 DUP2 MSTORE PUSH1 0x20 ADD DUP3 DUP1 SLOAD PUSH2 0x37D SWAP1 PUSH2 0x8C8 JUMP JUMPDEST DUP1 ISZERO PUSH2 0x3CA JUMPI DUP1 PUSH1 0x1F LT PUSH2 0x39F JUMPI PUSH2 0x100 DUP1 DUP4 SLOAD DIV MUL DUP4 MSTORE SWAP2 PUSH1 0x20 ADD SWAP2 PUSH2 0x3CA JUMP JUMPDEST DUP3 ADD SWAP2 SWAP1 PUSH1 0x0 MSTORE PUSH1 0x20 PUSH1 0x0 KECCAK256 SWAP1 JUMPDEST DUP2 SLOAD DUP2 MSTORE SWAP1 PUSH1 0x1 ADD SWAP1 PUSH1 0x20 ADD DUP1 DUP4 GT PUSH2 0x3AD JUMPI DUP3 SWAP1 SUB PUSH1 0x1F AND DUP3 ADD SWAP2 JUMPDEST POP POP POP POP POP DUP2 JUMP JUMPDEST PUSH1 0x0 DUP2 PUSH1 0x0 DUP1 CALLER PUSH20 0xFFFFFFFFFFFFFFFFFFFFFFFFFFFFFFFFFFFFFFFF AND PUSH20 0xFFFFFFFFFFFFFFFFFFFFFFFFFFFFFFFFFFFFFFFF AND DUP2 MSTORE PUSH1 0x20 ADD SWAP1 DUP2 MSTORE PUSH1 0x20 ADD PUSH1 0x0 KECCAK256 SLOAD LT ISZERO PUSH2 0x455 JUMPI PUSH1 0x40 MLOAD PUSH32 0x8C379A000000000000000000000000000000000000000000000000000000000 DUP2 MSTORE PUSH1 0x4 ADD PUSH2 0x44C SWAP1 PUSH2 0xA7D JUMP JUMPDEST PUSH1 0x40 MLOAD DUP1 SWAP2 SUB SWAP1 REVERT JUMPDEST DUP2 PUSH1 0x0 DUP1 CALLER PUSH20 0xFFFFFFFFFFFFFFFFFFFFFFFFFFFFFFFFFFFFFFFF AND PUSH20 0xFFFFFFFFFFFFFFFFFFFFFFFFFFFFFFFFFFFFFFFF AND DUP2 MSTORE PUSH1 0x20 ADD SWAP1 DUP2 MSTORE PUSH1 0x20 ADD PUSH1 0x0 KECCAK256 PUSH1 0x0 DUP3 DUP3 SLOAD PUSH2 0x4A3 SWAP2 SWAP1 PUSH2 0xA9D JUMP JUMPDEST SWAP3 POP POP DUP2 SWAP1 SSTORE POP DUP2 PUSH1 0x0 DUP1 DUP6 PUSH20 0xFFFFFFFFFFFFFFFFFFFFFFFFFFFFFFFFFFFFFFFF AND PUSH20 0xFFFFFFFFFFFFFFFFFFFFFFFFFFFFFFFFFFFFFFFF AND DUP2 MSTORE PUSH1 0x20 ADD SWAP1 DUP2 MSTORE PUSH1 0x20 ADD PUSH1 0x0 KECCAK256 PUSH1 0x0 DUP3 DUP3 SLOAD PUSH2 0x4F8 SWAP2 SWAP1 PUSH2 0xAD1 JUMP JUMPDEST SWAP3 POP POP DUP2 SWAP1 SSTORE POP PUSH1 0x1 SWAP1 POP SWAP3 SWAP2 POP POP JUMP JUMPDEST PUSH1 0x0 DUP2 MLOAD SWAP1 POP SWAP2 SWAP1 POP JUMP JUMPDEST PUSH1 0x0 DUP3 DUP3 MSTORE PUSH1 0x20 DUP3 ADD SWAP1 POP SWAP3 SWAP2 POP POP JUMP JUMPDEST PUSH1 0x0 JUMPDEST DUP4 DUP2 LT ISZERO PUSH2 0x543 JUMPI DUP1 DUP3 ADD MLOAD DUP2 DUP5 ADD MSTORE PUSH1 0x20 DUP2 ADD SWAP1 POP PUSH2 0x528 JUMP JUMPDEST PUSH1 0x0 DUP5 DUP5 ADD MSTORE POP POP POP POP JUMP JUMPDEST PUSH1 0x0 PUSH1 0x1F NOT PUSH1 0x1F DUP4 ADD AND SWAP1 POP SWAP2 SWAP1 POP JUMP JUMPDEST PUSH1 0x0 PUSH2 0x56B DUP3 PUSH2 0x509 JUMP JUMPDEST PUSH2 0x575 DUP2 DUP6 PUSH2 0x514 JUMP JUMPDEST SWAP4 POP PUSH2 0x585 DUP2 DUP6 PUSH1 0x20 DUP7 ADD PUSH2 0x525 JUMP JUMPDEST PUSH2 0x58E DUP2 PUSH2 0x54F JUMP JUMPDEST DUP5 ADD SWAP2 POP POP SWAP3 SWAP2 POP POP JUMP JUMPDEST PUSH1 0x0 PUSH1 0x20 DUP3 ADD SWAP1 POP DUP2 DUP2 SUB PUSH1 0x0 DUP4 ADD MSTORE PUSH2 0x5B3 DUP2 DUP5 PUSH2 0x560 JUMP JUMPDEST SWAP1 POP SWAP3 SWAP2 POP POP JUMP JUMPDEST PUSH1 0x0 DUP1 REVERT JUMPDEST PUSH1 0x0 DUP1 REVERT JUMPDEST PUSH1 0x0 PUSH20 0xFFFFFFFFFFFFFFFFFFFFFFFFFFFFFFFFFFFFFFFF DUP3 AND SWAP1 POP SWAP2 SWAP1 POP JUMP JUMPDEST PUSH1 0x0 PUSH2 0x5F0 DUP3 PUSH2 0x5C5 JUMP JUMPDEST SWAP1 POP SWAP2 SWAP1 POP JUMP JUMPDEST PUSH2 0x600 DUP2 PUSH2 0x5E5 JUMP JUMPDEST DUP2 EQ PUSH2 0x60B JUMPI PUSH1 0x0 DUP1 REVERT JUMPDEST POP JUMP JUMPDEST PUSH1 0x0 DUP2 CALLDATALOAD SWAP1 POP PUSH2 0x61D DUP2 PUSH2 0x5F7 JUMP JUMPDEST SWAP3 SWAP2 POP POP JUMP JUMPDEST PUSH1 0x0 PUSH1 0x20 DUP3 DUP5 SUB SLT ISZERO PUSH2 0x639 JUMPI PUSH2 0x638 PUSH2 0x5BB JUMP JUMPDEST JUMPDEST PUSH1 0x0 PUSH2 0x647 DUP5 DUP3 DUP6 ADD PUSH2 0x60E JUMP JUMPDEST SWAP2 POP POP SWAP3 SWAP2 POP POP JUMP JUMPDEST PUSH1 0x0 DUP2 SWAP1 POP SWAP2 SWAP1 POP JUMP JUMPDEST PUSH2 0x663 DUP2 PUSH2 0x650 JUMP JUMPDEST DUP3 MSTORE POP POP JUMP JUMPDEST PUSH1 0x0 PUSH1 0x20 DUP3 ADD SWAP1 POP PUSH2 0x67E PUSH1 0x0 DUP4 ADD DUP5 PUSH2 0x65A JUMP JUMPDEST SWAP3 SWAP2 POP POP JUMP JUMPDEST PUSH1 0x0 PUSH1 0xFF DUP3 AND SWAP1 POP SWAP2 SWAP1 POP JUMP JUMPDEST PUSH2 0x69A DUP2 PUSH2 0x684 JUMP JUMPDEST DUP3 MSTORE POP POP JUMP JUMPDEST PUSH1 0x0 PUSH1 0x20 DUP3 ADD SWAP1 POP PUSH2 0x6B5 PUSH1 0x0 DUP4 ADD DUP5 PUSH2 0x691 JUMP JUMPDEST SWAP3 SWAP2 POP POP JUMP JUMPDEST PUSH1 0x0 DUP1 REVERT JUMPDEST PUSH1 0x0 DUP1 REVERT JUMPDEST PUSH1 0x0 DUP1 REVERT JUMPDEST PUSH1 0x0 DUP1 DUP4 PUSH1 0x1F DUP5 ADD SLT PUSH2 0x6E0 JUMPI PUSH2 0x6DF PUSH2 0x6BB JUMP JUMPDEST JUMPDEST DUP3 CALLDATALOAD SWAP1 POP PUSH8 0xFFFFFFFFFFFFFFFF DUP2 GT ISZERO PUSH2 0x6FD JUMPI PUSH2 0x6FC PUSH2 0x6C0 JUMP JUMPDEST JUMPDEST PUSH1 0x20 DUP4 ADD SWAP2 POP DUP4 PUSH1 0x20 DUP3 MUL DUP4 ADD GT ISZERO PUSH2 0x719 JUMPI PUSH2 0x718 PUSH2 0x6C5 JUMP JUMPDEST JUMPDEST SWAP3 POP SWAP3 SWAP1 POP JUMP JUMPDEST PUSH1 0x0 DUP1 DUP4 PUSH1 0x1F DUP5 ADD SLT PUSH2 0x736 JUMPI PUSH2 0x735 PUSH2 0x6BB JUMP JUMPDEST JUMPDEST DUP3 CALLDATALOAD SWAP1 POP PUSH8 0xFFFFFFFFFFFFFFFF DUP2 GT ISZERO PUSH2 0x753 JUMPI PUSH2 0x752 PUSH2 0x6C0 JUMP JUMPDEST JUMPDEST PUSH1 0x20 DUP4 ADD SWAP2 POP DUP4 PUSH1 0x20 DUP3 MUL DUP4 ADD GT ISZERO PUSH2 0x76F JUMPI PUSH2 0x76E PUSH2 0x6C5 JUMP JUMPDEST JUMPDEST SWAP3 POP SWAP3 SWAP1 POP JUMP JUMPDEST PUSH1 0x0 DUP1 PUSH1 0x0 DUP1 PUSH1 0x40 DUP6 DUP8 SUB SLT ISZERO PUSH2 0x790 JUMPI PUSH2 0x78F PUSH2 0x5BB JUMP JUMPDEST JUMPDEST PUSH1 0x0 DUP6 ADD CALLDATALOAD PUSH8 0xFFFFFFFFFFFFFFFF DUP2 GT ISZERO PUSH2 0x7AE JUMPI PUSH2 0x7AD PUSH2 0x5C0 JUMP JUMPDEST JUMPDEST PUSH2 0x7BA DUP8 DUP3 DUP9 ADD PUSH2 0x6CA JUMP JUMPDEST SWAP5 POP SWAP5 POP POP PUSH1 0x20 DUP6 ADD CALLDATALOAD PUSH8 0xFFFFFFFFFFFFFFFF DUP2 GT ISZERO PUSH2 0x7DD JUMPI PUSH2 0x7DC PUSH2 0x5C0 JUMP JUMPDEST JUMPDEST PUSH2 0x7E9 DUP8 DUP3 DUP9 ADD PUSH2 0x720 JUMP JUMPDEST SWAP3 POP SWAP3 POP POP SWAP3 SWAP6 SWAP2 SWAP5 POP SWAP3 POP JUMP JUMPDEST PUSH2 0x800 DUP2 PUSH2 0x650 JUMP JUMPDEST DUP2 EQ PUSH2 0x80B JUMPI PUSH1 0x0 DUP1 REVERT JUMPDEST POP JUMP JUMPDEST PUSH1 0x0 DUP2 CALLDATALOAD SWAP1 POP PUSH2 0x81D DUP2 PUSH2 0x7F7 JUMP JUMPDEST SWAP3 SWAP2 POP POP JUMP JUMPDEST PUSH1 0x0 DUP1 PUSH1 0x40 DUP4 DUP6 SUB SLT ISZERO PUSH2 0x83A JUMPI PUSH2 0x839 PUSH2 0x5BB JUMP JUMPDEST JUMPDEST PUSH1 0x0 PUSH2 0x848 DUP6 DUP3 DUP7 ADD PUSH2 0x60E JUMP JUMPDEST SWAP3 POP POP PUSH1 0x20 PUSH2 0x859 DUP6 DUP3 DUP7 ADD PUSH2 0x80E JUMP JUMPDEST SWAP2 POP POP SWAP3 POP SWAP3 SWAP1 POP JUMP JUMPDEST PUSH1 0x0 DUP2 ISZERO ISZERO SWAP1 POP SWAP2 SWAP1 POP JUMP JUMPDEST PUSH2 0x878 DUP2 PUSH2 0x863 JUMP JUMPDEST DUP3 MSTORE POP POP JUMP JUMPDEST PUSH1 0x0 PUSH1 0x20 DUP3 ADD SWAP1 POP PUSH2 0x893 PUSH1 0x0 DUP4 ADD DUP5 PUSH2 0x86F JUMP JUMPDEST SWAP3 SWAP2 POP POP JUMP JUMPDEST PUSH32 0x4E487B7100000000000000000000000000000000000000000000000000000000 PUSH1 0x0 MSTORE PUSH1 0x22 PUSH1 0x4 MSTORE PUSH1 0x24 PUSH1 0x0 REVERT JUMPDEST PUSH1 0x0 PUSH1 0x2 DUP3 DIV SWAP1 POP PUSH1 0x1 DUP3 AND DUP1 PUSH2 0x8E0 JUMPI PUSH1 0x7F DUP3 AND SWAP2 POP JUMPDEST PUSH1 0x20 DUP3 LT DUP2 SUB PUSH2 0x8F3 JUMPI PUSH2 0x8F2 PUSH2 0x899 JUMP JUMPDEST JUMPDEST POP SWAP2 SWAP1 POP JUMP JUMPDEST PUSH32 0x4164647265737320617272617920616E6420616D6F756E747320617272617920 PUSH1 0x0 DUP3 ADD MSTORE PUSH32 0x6C656E677468206D7573742062652073616D6500000000000000000000000000 PUSH1 0x20 DUP3 ADD MSTORE POP JUMP JUMPDEST PUSH1 0x0 PUSH2 0x955 PUSH1 0x33 DUP4 PUSH2 0x514 JUMP JUMPDEST SWAP2 POP PUSH2 0x960 DUP3 PUSH2 0x8F9 JUMP JUMPDEST PUSH1 0x40 DUP3 ADD SWAP1 POP SWAP2 SWAP1 POP JUMP JUMPDEST PUSH1 0x0 PUSH1 0x20 DUP3 ADD SWAP1 POP DUP2 DUP2 SUB PUSH1 0x0 DUP4 ADD MSTORE PUSH2 0x984 DUP2 PUSH2 0x948 JUMP JUMPDEST SWAP1 POP SWAP2 SWAP1 POP JUMP JUMPDEST PUSH32 0x4E487B7100000000000000000000000000000000000000000000000000000000 PUSH1 0x0 MSTORE PUSH1 0x32 PUSH1 0x4 MSTORE PUSH1 0x24 PUSH1 0x0 REVERT JUMPDEST PUSH32 0x4E487B7100000000000000000000000000000000000000000000000000000000 PUSH1 0x0 MSTORE PUSH1 0x11 PUSH1 0x4 MSTORE PUSH1 0x24 PUSH1 0x0 REVERT JUMPDEST PUSH1 0x0 PUSH2 0x9F4 DUP3 PUSH2 0x650 JUMP JUMPDEST SWAP2 POP PUSH32 0xFFFFFFFFFFFFFFFFFFFFFFFFFFFFFFFFFFFFFFFFFFFFFFFFFFFFFFFFFFFFFFFF DUP3 SUB PUSH2 0xA26 JUMPI PUSH2 0xA25 PUSH2 0x9BA JUMP JUMPDEST JUMPDEST PUSH1 0x1 DUP3 ADD SWAP1 POP SWAP2 SWAP1 POP JUMP JUMPDEST PUSH32 0x496E73756666696369656E742062616C616E6365000000000000000000000000 PUSH1 0x0 DUP3 ADD MSTORE POP JUMP JUMPDEST PUSH1 0x0 PUSH2 0xA67 PUSH1 0x14 DUP4 PUSH2 0x514 JUMP JUMPDEST SWAP2 POP PUSH2 0xA72 DUP3 PUSH2 0xA31 JUMP JUMPDEST PUSH1 0x20 DUP3 ADD SWAP1 POP SWAP2 SWAP1 POP JUMP JUMPDEST PUSH1 0x0 PUSH1 0x20 DUP3 ADD SWAP1 POP DUP2 DUP2 SUB PUSH1 0x0 DUP4 ADD MSTORE PUSH2 0xA96 DUP2 PUSH2 0xA5A JUMP JUMPDEST SWAP1 POP SWAP2 SWAP1 POP JUMP JUMPDEST PUSH1 0x0 PUSH2 0xAA8 DUP3 PUSH2 0x650 JUMP JUMPDEST SWAP2 POP PUSH2 0xAB3 DUP4 PUSH2 0x650 JUMP JUMPDEST SWAP3 POP DUP3 DUP3 SUB SWAP1 POP DUP2 DUP2 GT ISZERO PUSH2 0xACB JUMPI PUSH2 0xACA PUSH2 0x9BA JUMP JUMPDEST JUMPDEST SWAP3 SWAP2 POP POP JUMP JUMPDEST PUSH1 0x0 PUSH2 0xADC DUP3 PUSH2 0x650 JUMP JUMPDEST SWAP2 POP PUSH2 0xAE7 DUP4 PUSH2 0x650 JUMP JUMPDEST SWAP3 POP DUP3 DUP3 ADD SWAP1 POP DUP1 DUP3 GT ISZERO PUSH2 0xAFF JUMPI PUSH2 0xAFE PUSH2 0x9BA JUMP JUMPDEST JUMPDEST SWAP3 SWAP2 POP POP JUMP INVALID LOG2 PUSH5 0x6970667358 0x22 SLT KECCAK256 PUSH7 0xD152B212F408F5 0xFB 0x21 SWAP15 POP PUSH6 0x80A9E16AB608 RETURNDATASIZE 0xBE MSIZE 0xBB 0xBA CALLCODE 0xD8 SMOD 0x5C 0xC1 STOP 0xE2 DIV PUSH5 0x736F6C6343 STOP ADDMOD SLT STOP CALLER "
				},
				"gasEstimates": {
					"creation": {
						"codeDepositCost": "575000",
						"executionCost": "infinite",
						"totalCost": "infinite"
					},
					"external": {
						"balanceOf(address)": "2863",
						"balances(address)": "2837",
						"decimals()": "2516",
						"name()": "infinite",
						"symbol()": "infinite",
						"transfer(address,uint256)": "infinite",
						"transferBatch(address[],uint256[])": "infinite"
					}
				},
				"methodIdentifiers": {
					"balanceOf(address)": "70a08231",
					"balances(address)": "27e235e3",
					"decimals()": "313ce567",
					"name()": "06fdde03",
					"symbol()": "95d89b41",
					"transfer(address,uint256)": "a9059cbb",
					"transferBatch(address[],uint256[])": "3b3e672f"
				}
			},
			"storageLayout": {
				"storage": [
					{
						"astId": 5,
						"contract": "Challenge-2-Polygon-Transaction-Optimization/polygon_transaction_optimization.sol:MyToken",
						"label": "balances",
						"offset": 0,
						"slot": "0",
						"type": "t_mapping(t_address,t_uint256)"
					},
					{
						"astId": 7,
						"contract": "Challenge-2-Polygon-Transaction-Optimization/polygon_transaction_optimization.sol:MyToken",
						"label": "name",
						"offset": 0,
						"slot": "1",
						"type": "t_string_storage"
					},
					{
						"astId": 9,
						"contract": "Challenge-2-Polygon-Transaction-Optimization/polygon_transaction_optimization.sol:MyToken",
						"label": "symbol",
						"offset": 0,
						"slot": "2",
						"type": "t_string_storage"
					},
					{
						"astId": 11,
						"contract": "Challenge-2-Polygon-Transaction-Optimization/polygon_transaction_optimization.sol:MyToken",
						"label": "decimals",
						"offset": 0,
						"slot": "3",
						"type": "t_uint8"
					}
				],
				"types": {
					"t_address": {
						"encoding": "inplace",
						"label": "address",
						"numberOfBytes": "20"
					},
					"t_mapping(t_address,t_uint256)": {
						"encoding": "mapping",
						"key": "t_address",
						"label": "mapping(address => uint256)",
						"numberOfBytes": "32",
						"value": "t_uint256"
					},
					"t_string_storage": {
						"encoding": "bytes",
						"label": "string",
						"numberOfBytes": "32"
					},
					"t_uint256": {
						"encoding": "inplace",
						"label": "uint256",
						"numberOfBytes": "32"
					},
					"t_uint8": {
						"encoding": "inplace",
						"label": "uint8",
						"numberOfBytes": "1"
					}
				}
			},
			"userdoc": {
				"kind": "user",
				"methods": {},
				"version": 1
			}
		}
	}
}